{"contracts/LandRegistry.sol":{"LandRegistry":{"abi":[{"anonymous":false,"inputs":[{"indexed":true,"internalType":"string","name":"propertyId","type":"string"},{"indexed":true,"internalType":"address","name":"owner","type":"address"},{"indexed":false,"internalType":"uint256","name":"registrationDate","type":"uint256"}],"name":"PropertyRegistered","type":"event"},{"anonymous":false,"inputs":[{"indexed":true,"internalType":"string","name":"propertyId","type":"string"},{"indexed":true,"internalType":"address","name":"from","type":"address"},{"indexed":true,"internalType":"address","name":"to","type":"address"},{"indexed":false,"internalType":"uint256","name":"transferDate","type":"uint256"}],"name":"PropertyTransferred","type":"event"},{"anonymous":false,"inputs":[{"indexed":true,"internalType":"string","name":"propertyId","type":"string"},{"indexed":true,"internalType":"address","name":"owner","type":"address"},{"indexed":false,"internalType":"uint256","name":"updateDate","type":"uint256"}],"name":"PropertyUpdated","type":"event"},{"inputs":[{"internalType":"address","name":"_owner","type":"address"}],"name":"getPropertiesByOwner","outputs":[{"internalType":"string[]","name":"","type":"string[]"}],"stateMutability":"view","type":"function"},{"inputs":[{"internalType":"string","name":"_propertyId","type":"string"}],"name":"getProperty","outputs":[{"internalType":"string","name":"propertyId","type":"string"},{"internalType":"string","name":"propertyAddress","type":"string"},{"internalType":"string","name":"city","type":"string"},{"internalType":"string","name":"postalCode","type":"string"},{"internalType":"uint256","name":"area","type":"uint256"},{"internalType":"string","name":"latitude","type":"string"},{"internalType":"string","name":"longitude","type":"string"},{"internalType":"address","name":"owner","type":"address"},{"internalType":"string","name":"ownerName","type":"string"},{"internalType":"string","name":"documentHash","type":"string"},{"internalType":"uint256","name":"registrationDate","type":"uint256"},{"internalType":"bool","name":"isRegistered","type":"bool"}],"stateMutability":"view","type":"function"},{"inputs":[],"name":"getPropertyCount","outputs":[{"internalType":"uint256","name":"","type":"uint256"}],"stateMutability":"view","type":"function"},{"inputs":[{"internalType":"uint256","name":"_index","type":"uint256"}],"name":"getPropertyIdByIndex","outputs":[{"internalType":"string","name":"","type":"string"}],"stateMutability":"view","type":"function"},{"inputs":[{"internalType":"string","name":"_propertyId","type":"string"}],"name":"getTransferHistory","outputs":[{"components":[{"internalType":"address","name":"from","type":"address"},{"internalType":"address","name":"to","type":"address"},{"internalType":"string","name":"newOwnerName","type":"string"},{"internalType":"uint256","name":"transferDate","type":"uint256"}],"internalType":"struct LandRegistry.Transfer[]","name":"","type":"tuple[]"}],"stateMutability":"view","type":"function"},{"inputs":[{"internalType":"string","name":"_propertyId","type":"string"}],"name":"isPropertyRegistered","outputs":[{"internalType":"bool","name":"","type":"bool"}],"stateMutability":"view","type":"function"},{"inputs":[{"internalType":"string","name":"_propertyId","type":"string"},{"internalType":"string","name":"_address","type":"string"},{"internalType":"string","name":"_city","type":"string"},{"internalType":"string","name":"_postalCode","type":"string"},{"internalType":"uint256","name":"_area","type":"uint256"},{"internalType":"string","name":"_latitude","type":"string"},{"internalType":"string","name":"_longitude","type":"string"},{"internalType":"string","name":"_ownerName","type":"string"},{"internalType":"string","name":"_documentHash","type":"string"}],"name":"registerProperty","outputs":[],"stateMutability":"nonpayable","type":"function"},{"inputs":[{"internalType":"string","name":"_propertyId","type":"string"},{"internalType":"address","name":"_newOwner","type":"address"},{"internalType":"string","name":"_newOwnerName","type":"string"}],"name":"transferProperty","outputs":[],"stateMutability":"nonpayable","type":"function"},{"inputs":[{"internalType":"string","name":"_propertyId","type":"string"},{"internalType":"string","name":"_address","type":"string"},{"internalType":"string","name":"_documentHash","type":"string"}],"name":"updatePropertyDetails","outputs":[],"stateMutability":"nonpayable","type":"function"},{"inputs":[{"internalType":"string","name":"_propertyId","type":"string"}],"name":"verifyProperty","outputs":[{"internalType":"bool","name":"isRegistered","type":"bool"},{"internalType":"address","name":"owner","type":"address"},{"internalType":"string","name":"ownerName","type":"string"},{"internalType":"uint256","name":"registrationDate","type":"uint256"},{"internalType":"string","name":"propertyAddress","type":"string"}],"stateMutability":"view","type":"function"}],"evm":{"bytecode":{"linkReferences":{},"object":"6080806040523461001657611fe2908161001c8239f35b600080fdfe60e080604052600436101561001357600080fd5b60003560e01c90816326a766e414611a74575080633e48ab8b14610f005780634917500d14610e5657806354f2b93f14610cb35780637326b90114610c955780637b2cca7c14610af957806380560fdb146105505780639fcb274814610457578063ab331a34146101d95763bceb27181461008d57600080fd5b346101d45760603660031901126101d4576001600160401b036004358181116101d4576100be903690600401611ac9565b916024358181116101d4576100d7903690600401611ac9565b916044359081116101d4576100f0903690600401611ac9565b9161011560ff600b604051898982376020818b81016000815203019020015416611d77565b610144604051878782376000888201908152602090829003019020600701546001600160a01b03163314611dc3565b60405186868237602081888101600081520301902093806101c0575b5050816101ac575b505050816040519283928337810160008152039020604051904282527fc70bba537c3d144ac337218f2d12052585714d7a9a41f625b698222cae9f60bf60203393a3005b60096101b89301611c84565b388080610168565b6101cd9160018601611c84565b3880610160565b600080fd5b346101d45760203660031901126101d4576004356001600160401b0381116101d457610209903690600401611ac9565b908160405192839283378101600081520360200190206040519061022c82611b36565b6040518061023a8184611e23565b036102459082611b6d565b8252604051806102588160018501611e23565b036102639082611b6d565b6020830152604051806102798160028501611e23565b036102849082611b6d565b60408301526040518080600384019061029c91611e23565b036102a79082611b6d565b606083015260048101546080830152604051806102c78160058501611e23565b036102d29082611b6d565b60a0830152604051806102e88160068501611e23565b036102f39082611b6d565b60c083015260078101546001600160a01b031660e08301526040518061031c8160088501611e23565b036103279082611b6d565b610100830152604051908161033f8160098401611e23565b0361034a9083611b6d565b81610120840152600a8101549081610140850152600b015460ff161515806101608501528351926020850151946040810151906060810151608082015160a08301519060c084015192600160a01b6001900360e086015116946101000151956040519b8c9b8c6101808091528d016103c191611af6565b8c810360208e01526103d291611af6565b8b810360408d01526103e391611af6565b8a810360608c01526103f491611af6565b9060808a015288810360a08a015261040b91611af6565b87810360c089015261041c91611af6565b9060e087015285810361010087015261043491611af6565b84810361012086015261044691611af6565b916101408401526101608301520390f35b346101d4576020806003193601126101d4576004356001600160a01b038116908190036101d4576000526002815260406000209081549161049783611eb9565b926104a56040519485611b6d565b8084528284018092600052836000206000915b83831061051f5750505050604051918083019381845251809452604083019360408160051b85010192916000955b8287106104f35785850386f35b90919293828061050f600193603f198a82030186528851611af6565b96019201960195929190926104e6565b600186819260409998995161053f816105388189611e23565b0382611b6d565b8152019201920191909594956104b8565b346101d45760603660031901126101d4576004356001600160401b0381116101d457610580903690600401611ac9565b60243591906001600160a01b03831683036101d4576044356001600160401b0381116101d4576105b4903690600401611ac9565b6105db60ff600b604095949551858882376020818781016000815203019020015416611d77565b61060a604051838682376000848201908152602090829003019020600701546001600160a01b03163314611dc3565b6001600160a01b03851615610ab4576001600160a01b0385163314610a6f578015610a2a576040518285823760208184810160008152030190209260018060a01b036007850154169360405161065f81611b52565b8581526001600160a01b038816602082015261067c368585611b8e565b6040820152426060820152604051858882376001868201526020818781010301902090815491600160401b8310156109fe5760018301808255831015610a145760009081526020908190208251600285901b820180546001600160a01b03199081166001600160a01b0393841617825593850151600191909101805490941691161790915560408201518051919291906001600160401b0382116109fe5761073c8261072f600288811b88010154611bd4565b600288811b880101611c25565b602090601f83116001146109785760089593836003946107ae9b9a99979460609460009261096d575b50508160011b9160001990871b1c191617600286811b850101555b015160029390931b0101556007810180546001600160a01b0319166001600160a01b038b1617905501611c84565b60018060a01b03841660005260026020526107ce81846040600020611d47565b6107d9368285611b8e565b928260005260026020526040600020600060208601905b8254808210156109605761053861081761080a8487611c6c565b5060405192838092611e23565b60208151910120885184201461083057506001016107f0565b92939495965090506000199182810190811161094a5761085361085b9185611c6c565b509184611c6c565b91909161091e5761086b91611ed0565b8154801561093457019061087f8282611c6c565b61091e5761088d8154611bd4565b90816108e0575b5050555b8160405192839283378101600081520390207ff941a1ca8d1a22529c1133827aaac1a11678210c5aed825de4ee86c1c387281c60206040519442865260018060a01b031694a4005b81601f600093116001146108f85750555b8680610894565b908083918252610917601f60208420940160051c840160018501611c0e565b55556108f1565b634e487b7160e01b600052600060045260246000fd5b634e487b7160e01b600052603160045260246000fd5b634e487b7160e01b600052601160045260246000fd5b5050505090919250610898565b015190503880610765565b90600286811b86010160005260206000209160005b601f19851681106109e65750936001846107ae9b9a99979460609460089a98600398601f198116106109ce575b505050811b01600286811b85010155610780565b015160001983891b60f8161c191690553880806109ba565b9192602060018192868501518155019401920161098d565b634e487b7160e01b600052604160045260246000fd5b634e487b7160e01b600052603260045260246000fd5b60405162461bcd60e51b815260206004820152601e60248201527f4e6577206f776e6572206e616d652063616e6e6f7420626520656d70747900006044820152606490fd5b60405162461bcd60e51b815260206004820152601b60248201527f43616e6e6f74207472616e7366657220746f20796f757273656c6600000000006044820152606490fd5b60405162461bcd60e51b815260206004820152601960248201527f496e76616c6964206e6577206f776e65722061646472657373000000000000006044820152606490fd5b346101d4576020806003193601126101d4576004356001600160401b0381116101d457610b2a903690600401611ac9565b610b5060ff600b6040959495518487823785818681016000815203019020015416611d77565b80604051938437820191818160019485815203019020805491610b7283611eb9565b92610b806040519485611b6d565b8084528184018093600052826000206000915b838310610c3257505050506040519384938285019083865251809152604085019260408260051b87010194936000905b838210610bd05787870388f35b918496819592949698508190603f198b820301855289519060018060a01b03808351168252838301511683820152610c1660408301516080806040850152830190611af6565b9160608091015191015298019201920187969593919492610bc3565b966004858297989699604051610c4781611b52565b85546001600160a01b039081168252858701541683820152604051610c73816105388160028b01611e23565b6040820152600386015460608201528152019201920191909693959496610b93565b346101d45760003660031901126101d4576020600354604051908152f35b346101d45760203660031901126101d4576004356001600160401b0381116101d457610ce56020913690600401611ac9565b919082604051938492833781016000815203019020610160610e5260405192610d0d84611b36565b604051610d1e816105388185611e23565b8452604051610d34816105388160018601611e23565b60208501908152604051610d4f816105388160028701611e23565b6040860152604051610d68816105388160038701611e23565b606086015260048201546080860152604051610d8b816105388160058701611e23565b60a0860152604051610da4816105388160068701611e23565b60c0860152610e3f60018060a01b038060078501541660e0880190815260405197610ddd89610dd68160088a01611e23565b038a611b6d565b6101008101988952604051610df9816105388160098b01611e23565b61012082015260ff600b600a880154978861014085015201541615159788910152511695519151916040519687968752602087015260a0604087015260a0860190611af6565b9160608501528382036080850152611af6565b0390f35b346101d45760203660031901126101d457600435600354811015610ec557610538610eb1610e52926003600052604051928380927fc2575a0e9e593c00f959f8c92f12db2869c3395a3b0502d05e2516446f71f85b01611e23565b604051918291602083526020830190611af6565b60405162461bcd60e51b8152602060048201526013602482015272496e646578206f7574206f6620626f756e647360681b6044820152606490fd5b346101d4576101203660031901126101d4576004356001600160401b0381116101d457610f31903690600401611ac9565b9060c05260c05160a0526024356001600160401b0381116101d457610f5a903690600401611ac9565b6044356001600160401b0381116101d457610f79903690600401611ac9565b9290916001600160401b03606435116101d457610f9b36606435600401611ac9565b9490936001600160401b0360a435116101d457610fbd3660a435600401611ac9565b92909160c4356001600160401b0381116101d457610fdf903690600401611ac9565b909160e4356001600160401b0381116101d457611000903690600401611ac9565b95909661010435996001600160401b038b116101d4578d9b60ff61102a600b9d3690600401611ac9565b9d909e602060405182819360c0518337600081830152810103019020015416611a2f578e156119ea578a156119a5576084351561196057881561191b576111119d8f6110de966110ec9a6110ab6111029f966110c7976110a06110b99661109660405180608052611b36565b369060a051611b8e565b608051523691611b8e565b602060805101523691611b8e565b604060805101523691611b8e565b606060805101526084356080805101523691611b8e565b60a060805101523691611b8e565b60c060805101523360e060805101523691611b8e565b61010060805101523691611b8e565b6101206080510152426101406080510152600161016060805101526040518160a05182376020818381016000815203019020608051519182516001600160401b0381116109fe5761116c816111668554611bd4565b85611c25565b6020601f82116001146118b357819293946000926118a8575b50508160011b916000199060031b1c19161782555b602060805101519182516001600160401b0381116109fe576111cc816111c36001850154611bd4565b60018501611c25565b6020601f821160011461183a578192939460009261182f575b50508160011b916000199060031b1c19161760018201555b604060805101519182516001600160401b0381116109fe5761122f816112266002860154611bd4565b60028601611c25565b6020601f82116001146117c157819293946000926117b6575b50508160011b916000199060031b1c19161760028301555b606060805101519182516001600160401b0381116109fe57611292816112896003850154611bd4565b60038501611c25565b6020601f8211600114611748578192939460009261173d575b50508160011b916000199060031b1c19161760038201555b60a06080516080810151600484015501519182516001600160401b0381116109fe576112ff816112f66005860154611bd4565b60058601611c25565b6020601f82116001146116cf57819293946000926116c4575b50508160011b916000199060031b1c19161760058301555b60c060805101519182516001600160401b0381116109fe57611362816113596006850154611bd4565b60068501611c25565b6020601f8211600114611656578192939460009261164b575b50508160011b916000199060031b1c19161760068201555b610100600782016080519060018060a01b0360e0830151166bffffffffffffffffffffffff60a01b82541617905501519182516001600160401b0381116109fe576113ee816113e56008860154611bd4565b60088601611c25565b6020601f82116001146115dd57819293946000926115d2575b50508160011b916000199060031b1c19161760088301555b61012060805101519182516001600160401b0381116109fe57611452816114496009850154611bd4565b60098501611c25565b6020601f82116001146115645781929394600092611559575b50508160011b916000199060031b1c19161760098201555b610160600b60805192610140840151600a82015501910151151560ff80198354169116179055600354600160401b8110156109fe576001810180600355811015610a1457816114fc91600360005260a051907fc2575a0e9e593c00f959f8c92f12db2869c3395a3b0502d05e2516446f71f85b01611c84565b3360005260026020526115168160a0516040600020611d47565b60405181819260a0518337810160008152039020604051904282527f73d2fd8237105d32b68ff9c704037d5409605c2be640b8b9a11387a4ba98387c60203393a3005b01519050848061146b565b6009830160005260206000209060005b601f19841681106115ba5750600193949583601f198116106115a1575b505050811b016009820155611483565b015160001960f88460031b161c19169055848080611591565b9091602060018192858a015181550193019101611574565b015190508480611407565b6008840160005260206000209060005b601f19841681106116335750600193949583601f1981161061161a575b505050811b01600883015561141f565b015160001960f88460031b161c1916905584808061160a565b9091602060018192858a0151815501930191016115ed565b01519050848061137b565b6006830160005260206000209060005b601f19841681106116ac5750600193949583601f19811610611693575b505050811b016006820155611393565b015160001960f88460031b161c19169055848080611683565b9091602060018192858a015181550193019101611666565b015190508480611318565b6005840160005260206000209060005b601f19841681106117255750600193949583601f1981161061170c575b505050811b016005830155611330565b015160001960f88460031b161c191690558480806116fc565b9091602060018192858a0151815501930191016116df565b0151905084806112ab565b6003830160005260206000209060005b601f198416811061179e5750600193949583601f19811610611785575b505050811b0160038201556112c3565b015160001960f88460031b161c19169055848080611775565b9091602060018192858a015181550193019101611758565b015190508480611248565b6002840160005260206000209060005b601f19841681106118175750600193949583601f198116106117fe575b505050811b016002830155611260565b015160001960f88460031b161c191690558480806117ee565b9091602060018192858a0151815501930191016117d1565b0151905084806111e5565b6001830160005260206000209060005b601f19841681106118905750600193949583601f19811610611877575b505050811b0160018201556111fd565b015160001960f88460031b161c19169055848080611867565b9091602060018192858a01518155019301910161184a565b015190508480611185565b8360005260206000209060005b601f19841681106119035750600193949583601f198116106118ea575b505050811b01825561119a565b015160001960f88460031b161c191690558480806118dd565b9091602060018192858a0151815501930191016118c0565b60405162461bcd60e51b815260206004820152601a60248201527f4f776e6572206e616d652063616e6e6f7420626520656d7074790000000000006044820152606490fd5b60405162461bcd60e51b815260206004820152601b60248201527f41726561206d7573742062652067726561746572207468616e203000000000006044820152606490fd5b60405162461bcd60e51b815260206004820152601760248201527f416464726573732063616e6e6f7420626520656d7074790000000000000000006044820152606490fd5b60405162461bcd60e51b815260206004820152601b60248201527f50726f70657274792049442063616e6e6f7420626520656d70747900000000006044820152606490fd5b60405162461bcd60e51b815260206004820152601b60248201527f50726f706572747920616c7265616479207265676973746572656400000000006044820152606490fd5b346101d45760203660031901126101d457600435906001600160401b0382116101d457600b81602060ff93611aae82963690600401611ac9565b80918337810160008152030190200154166040519015158152f35b9181601f840112156101d4578235916001600160401b0383116101d457602083818601950101116101d457565b919082519283825260005b848110611b22575050826000602080949584010152601f8019910116010190565b602081830181015184830182015201611b01565b61018081019081106001600160401b038211176109fe57604052565b608081019081106001600160401b038211176109fe57604052565b90601f801991011681019081106001600160401b038211176109fe57604052565b9291926001600160401b0382116109fe5760405191611bb7601f8201601f191660200184611b6d565b8294818452818301116101d4578281602093846000960137010152565b90600182811c92168015611c04575b6020831014611bee57565b634e487b7160e01b600052602260045260246000fd5b91607f1691611be3565b818110611c19575050565b60008155600101611c0e565b9190601f8111611c3457505050565b611c60926000526020600020906020601f840160051c83019310611c62575b601f0160051c0190611c0e565b565b9091508190611c53565b8054821015610a145760005260206000200190600090565b9092916001600160401b0381116109fe57611ca981611ca38454611bd4565b84611c25565b6000601f8211600114611ce35781929394600092611cd8575b50508160011b916000199060031b1c1916179055565b013590503880611cc2565b601f198216948382526020918281209281905b888210611d2f57505083600195969710611d15575b505050811b019055565b0135600019600384901b60f8161c19169055388080611d0b565b80600184968294958701358155019501920190611cf6565b9190918054600160401b8110156109fe57611d6791600182018155611c6c565b92909261091e57611c6092611c84565b15611d7e57565b60405162461bcd60e51b815260206004820152601760248201527f50726f706572747920646f6573206e6f742065786973740000000000000000006044820152606490fd5b15611dca57565b60405162461bcd60e51b815260206004820152602b60248201527f4f6e6c792070726f7065727479206f776e65722063616e20706572666f726d2060448201526a3a3434b99030b1ba34b7b760a91b6064820152608490fd5b9060009291805491611e3483611bd4565b918282526001938481169081600014611e965750600114611e56575b50505050565b90919394506000526020928360002092846000945b838610611e82575050505001019038808080611e50565b805485870183015294019385908201611e6b565b9294505050602093945060ff191683830152151560051b01019038808080611e50565b6001600160401b0381116109fe5760051b60200190565b90808214611fa857611ee28154611bd4565b906001600160401b0382116109fe578190611f0782611f018654611bd4565b86611c25565b600090601f8311600114611f3d57600092611f325750508160011b916000199060031b1c1916179055565b015490503880611cc2565b81526020808220858352818320935090601f1985169083905b828210611f8f575050908460019594939210611f7657505050811b019055565b015460001960f88460031b161c19169055388080611d0b565b8495819295850154815560018091019601940190611f56565b505056fea2646970667358221220a70d51539861cee3a05ee5535bf71171207326f7b6a88dbe7e100ded7a90648064736f6c63430008140033","opcodes":"PUSH1 0x80 DUP1 PUSH1 0x40 MSTORE CALLVALUE PUSH2 0x16 JUMPI PUSH2 0x1FE2 SWAP1 DUP2 PUSH2 0x1C DUP3 CODECOPY RETURN JUMPDEST PUSH1 0x0 DUP1 REVERT INVALID PUSH1 0xE0 DUP1 PUSH1 0x40 MSTORE PUSH1 0x4 CALLDATASIZE LT ISZERO PUSH2 0x13 JUMPI PUSH1 0x0 DUP1 REVERT JUMPDEST PUSH1 0x0 CALLDATALOAD PUSH1 0xE0 SHR SWAP1 DUP2 PUSH4 0x26A766E4 EQ PUSH2 0x1A74 JUMPI POP DUP1 PUSH4 0x3E48AB8B EQ PUSH2 0xF00 JUMPI DUP1 PUSH4 0x4917500D EQ PUSH2 0xE56 JUMPI DUP1 PUSH4 0x54F2B93F EQ PUSH2 0xCB3 JUMPI DUP1 PUSH4 0x7326B901 EQ PUSH2 0xC95 JUMPI DUP1 PUSH4 0x7B2CCA7C EQ PUSH2 0xAF9 JUMPI DUP1 PUSH4 0x80560FDB EQ PUSH2 0x550 JUMPI DUP1 PUSH4 0x9FCB2748 EQ PUSH2 0x457 JUMPI DUP1 PUSH4 0xAB331A34 EQ PUSH2 0x1D9 JUMPI PUSH4 0xBCEB2718 EQ PUSH2 0x8D JUMPI PUSH1 0x0 DUP1 REVERT JUMPDEST CALLVALUE PUSH2 0x1D4 JUMPI PUSH1 0x60 CALLDATASIZE PUSH1 0x3 NOT ADD SLT PUSH2 0x1D4 JUMPI PUSH1 0x1 PUSH1 0x1 PUSH1 0x40 SHL SUB PUSH1 0x4 CALLDATALOAD DUP2 DUP2 GT PUSH2 0x1D4 JUMPI PUSH2 0xBE SWAP1 CALLDATASIZE SWAP1 PUSH1 0x4 ADD PUSH2 0x1AC9 JUMP JUMPDEST SWAP2 PUSH1 0x24 CALLDATALOAD DUP2 DUP2 GT PUSH2 0x1D4 JUMPI PUSH2 0xD7 SWAP1 CALLDATASIZE SWAP1 PUSH1 0x4 ADD PUSH2 0x1AC9 JUMP JUMPDEST SWAP2 PUSH1 0x44 CALLDATALOAD SWAP1 DUP2 GT PUSH2 0x1D4 JUMPI PUSH2 0xF0 SWAP1 CALLDATASIZE SWAP1 PUSH1 0x4 ADD PUSH2 0x1AC9 JUMP JUMPDEST SWAP2 PUSH2 0x115 PUSH1 0xFF PUSH1 0xB PUSH1 0x40 MLOAD DUP10 DUP10 DUP3 CALLDATACOPY PUSH1 0x20 DUP2 DUP12 DUP2 ADD PUSH1 0x0 DUP2 MSTORE SUB ADD SWAP1 KECCAK256 ADD SLOAD AND PUSH2 0x1D77 JUMP JUMPDEST PUSH2 0x144 PUSH1 0x40 MLOAD DUP8 DUP8 DUP3 CALLDATACOPY PUSH1 0x0 DUP9 DUP3 ADD SWAP1 DUP2 MSTORE PUSH1 0x20 SWAP1 DUP3 SWAP1 SUB ADD SWAP1 KECCAK256 PUSH1 0x7 ADD SLOAD PUSH1 0x1 PUSH1 0x1 PUSH1 0xA0 SHL SUB AND CALLER EQ PUSH2 0x1DC3 JUMP JUMPDEST PUSH1 0x40 MLOAD DUP7 DUP7 DUP3 CALLDATACOPY PUSH1 0x20 DUP2 DUP9 DUP2 ADD PUSH1 0x0 DUP2 MSTORE SUB ADD SWAP1 KECCAK256 SWAP4 DUP1 PUSH2 0x1C0 JUMPI JUMPDEST POP POP DUP2 PUSH2 0x1AC JUMPI JUMPDEST POP POP POP DUP2 PUSH1 0x40 MLOAD SWAP3 DUP4 SWAP3 DUP4 CALLDATACOPY DUP2 ADD PUSH1 0x0 DUP2 MSTORE SUB SWAP1 KECCAK256 PUSH1 0x40 MLOAD SWAP1 TIMESTAMP DUP3 MSTORE PUSH32 0xC70BBA537C3D144AC337218F2D12052585714D7A9A41F625B698222CAE9F60BF PUSH1 0x20 CALLER SWAP4 LOG3 STOP JUMPDEST PUSH1 0x9 PUSH2 0x1B8 SWAP4 ADD PUSH2 0x1C84 JUMP JUMPDEST CODESIZE DUP1 DUP1 PUSH2 0x168 JUMP JUMPDEST PUSH2 0x1CD SWAP2 PUSH1 0x1 DUP7 ADD PUSH2 0x1C84 JUMP JUMPDEST CODESIZE DUP1 PUSH2 0x160 JUMP JUMPDEST PUSH1 0x0 DUP1 REVERT JUMPDEST CALLVALUE PUSH2 0x1D4 JUMPI PUSH1 0x20 CALLDATASIZE PUSH1 0x3 NOT ADD SLT PUSH2 0x1D4 JUMPI PUSH1 0x4 CALLDATALOAD PUSH1 0x1 PUSH1 0x1 PUSH1 0x40 SHL SUB DUP2 GT PUSH2 0x1D4 JUMPI PUSH2 0x209 SWAP1 CALLDATASIZE SWAP1 PUSH1 0x4 ADD PUSH2 0x1AC9 JUMP JUMPDEST SWAP1 DUP2 PUSH1 0x40 MLOAD SWAP3 DUP4 SWAP3 DUP4 CALLDATACOPY DUP2 ADD PUSH1 0x0 DUP2 MSTORE SUB PUSH1 0x20 ADD SWAP1 KECCAK256 PUSH1 0x40 MLOAD SWAP1 PUSH2 0x22C DUP3 PUSH2 0x1B36 JUMP JUMPDEST PUSH1 0x40 MLOAD DUP1 PUSH2 0x23A DUP2 DUP5 PUSH2 0x1E23 JUMP JUMPDEST SUB PUSH2 0x245 SWAP1 DUP3 PUSH2 0x1B6D JUMP JUMPDEST DUP3 MSTORE PUSH1 0x40 MLOAD DUP1 PUSH2 0x258 DUP2 PUSH1 0x1 DUP6 ADD PUSH2 0x1E23 JUMP JUMPDEST SUB PUSH2 0x263 SWAP1 DUP3 PUSH2 0x1B6D JUMP JUMPDEST PUSH1 0x20 DUP4 ADD MSTORE PUSH1 0x40 MLOAD DUP1 PUSH2 0x279 DUP2 PUSH1 0x2 DUP6 ADD PUSH2 0x1E23 JUMP JUMPDEST SUB PUSH2 0x284 SWAP1 DUP3 PUSH2 0x1B6D JUMP JUMPDEST PUSH1 0x40 DUP4 ADD MSTORE PUSH1 0x40 MLOAD DUP1 DUP1 PUSH1 0x3 DUP5 ADD SWAP1 PUSH2 0x29C SWAP2 PUSH2 0x1E23 JUMP JUMPDEST SUB PUSH2 0x2A7 SWAP1 DUP3 PUSH2 0x1B6D JUMP JUMPDEST PUSH1 0x60 DUP4 ADD MSTORE PUSH1 0x4 DUP2 ADD SLOAD PUSH1 0x80 DUP4 ADD MSTORE PUSH1 0x40 MLOAD DUP1 PUSH2 0x2C7 DUP2 PUSH1 0x5 DUP6 ADD PUSH2 0x1E23 JUMP JUMPDEST SUB PUSH2 0x2D2 SWAP1 DUP3 PUSH2 0x1B6D JUMP JUMPDEST PUSH1 0xA0 DUP4 ADD MSTORE PUSH1 0x40 MLOAD DUP1 PUSH2 0x2E8 DUP2 PUSH1 0x6 DUP6 ADD PUSH2 0x1E23 JUMP JUMPDEST SUB PUSH2 0x2F3 SWAP1 DUP3 PUSH2 0x1B6D JUMP JUMPDEST PUSH1 0xC0 DUP4 ADD MSTORE PUSH1 0x7 DUP2 ADD SLOAD PUSH1 0x1 PUSH1 0x1 PUSH1 0xA0 SHL SUB AND PUSH1 0xE0 DUP4 ADD MSTORE PUSH1 0x40 MLOAD DUP1 PUSH2 0x31C DUP2 PUSH1 0x8 DUP6 ADD PUSH2 0x1E23 JUMP JUMPDEST SUB PUSH2 0x327 SWAP1 DUP3 PUSH2 0x1B6D JUMP JUMPDEST PUSH2 0x100 DUP4 ADD MSTORE PUSH1 0x40 MLOAD SWAP1 DUP2 PUSH2 0x33F DUP2 PUSH1 0x9 DUP5 ADD PUSH2 0x1E23 JUMP JUMPDEST SUB PUSH2 0x34A SWAP1 DUP4 PUSH2 0x1B6D JUMP JUMPDEST DUP2 PUSH2 0x120 DUP5 ADD MSTORE PUSH1 0xA DUP2 ADD SLOAD SWAP1 DUP2 PUSH2 0x140 DUP6 ADD MSTORE PUSH1 0xB ADD SLOAD PUSH1 0xFF AND ISZERO ISZERO DUP1 PUSH2 0x160 DUP6 ADD MSTORE DUP4 MLOAD SWAP3 PUSH1 0x20 DUP6 ADD MLOAD SWAP5 PUSH1 0x40 DUP2 ADD MLOAD SWAP1 PUSH1 0x60 DUP2 ADD MLOAD PUSH1 0x80 DUP3 ADD MLOAD PUSH1 0xA0 DUP4 ADD MLOAD SWAP1 PUSH1 0xC0 DUP5 ADD MLOAD SWAP3 PUSH1 0x1 PUSH1 0xA0 SHL PUSH1 0x1 SWAP1 SUB PUSH1 0xE0 DUP7 ADD MLOAD AND SWAP5 PUSH2 0x100 ADD MLOAD SWAP6 PUSH1 0x40 MLOAD SWAP12 DUP13 SWAP12 DUP13 PUSH2 0x180 DUP1 SWAP2 MSTORE DUP14 ADD PUSH2 0x3C1 SWAP2 PUSH2 0x1AF6 JUMP JUMPDEST DUP13 DUP2 SUB PUSH1 0x20 DUP15 ADD MSTORE PUSH2 0x3D2 SWAP2 PUSH2 0x1AF6 JUMP JUMPDEST DUP12 DUP2 SUB PUSH1 0x40 DUP14 ADD MSTORE PUSH2 0x3E3 SWAP2 PUSH2 0x1AF6 JUMP JUMPDEST DUP11 DUP2 SUB PUSH1 0x60 DUP13 ADD MSTORE PUSH2 0x3F4 SWAP2 PUSH2 0x1AF6 JUMP JUMPDEST SWAP1 PUSH1 0x80 DUP11 ADD MSTORE DUP9 DUP2 SUB PUSH1 0xA0 DUP11 ADD MSTORE PUSH2 0x40B SWAP2 PUSH2 0x1AF6 JUMP JUMPDEST DUP8 DUP2 SUB PUSH1 0xC0 DUP10 ADD MSTORE PUSH2 0x41C SWAP2 PUSH2 0x1AF6 JUMP JUMPDEST SWAP1 PUSH1 0xE0 DUP8 ADD MSTORE DUP6 DUP2 SUB PUSH2 0x100 DUP8 ADD MSTORE PUSH2 0x434 SWAP2 PUSH2 0x1AF6 JUMP JUMPDEST DUP5 DUP2 SUB PUSH2 0x120 DUP7 ADD MSTORE PUSH2 0x446 SWAP2 PUSH2 0x1AF6 JUMP JUMPDEST SWAP2 PUSH2 0x140 DUP5 ADD MSTORE PUSH2 0x160 DUP4 ADD MSTORE SUB SWAP1 RETURN JUMPDEST CALLVALUE PUSH2 0x1D4 JUMPI PUSH1 0x20 DUP1 PUSH1 0x3 NOT CALLDATASIZE ADD SLT PUSH2 0x1D4 JUMPI PUSH1 0x4 CALLDATALOAD PUSH1 0x1 PUSH1 0x1 PUSH1 0xA0 SHL SUB DUP2 AND SWAP1 DUP2 SWAP1 SUB PUSH2 0x1D4 JUMPI PUSH1 0x0 MSTORE PUSH1 0x2 DUP2 MSTORE PUSH1 0x40 PUSH1 0x0 KECCAK256 SWAP1 DUP2 SLOAD SWAP2 PUSH2 0x497 DUP4 PUSH2 0x1EB9 JUMP JUMPDEST SWAP3 PUSH2 0x4A5 PUSH1 0x40 MLOAD SWAP5 DUP6 PUSH2 0x1B6D JUMP JUMPDEST DUP1 DUP5 MSTORE DUP3 DUP5 ADD DUP1 SWAP3 PUSH1 0x0 MSTORE DUP4 PUSH1 0x0 KECCAK256 PUSH1 0x0 SWAP2 JUMPDEST DUP4 DUP4 LT PUSH2 0x51F JUMPI POP POP POP POP PUSH1 0x40 MLOAD SWAP2 DUP1 DUP4 ADD SWAP4 DUP2 DUP5 MSTORE MLOAD DUP1 SWAP5 MSTORE PUSH1 0x40 DUP4 ADD SWAP4 PUSH1 0x40 DUP2 PUSH1 0x5 SHL DUP6 ADD ADD SWAP3 SWAP2 PUSH1 0x0 SWAP6 JUMPDEST DUP3 DUP8 LT PUSH2 0x4F3 JUMPI DUP6 DUP6 SUB DUP7 RETURN JUMPDEST SWAP1 SWAP2 SWAP3 SWAP4 DUP3 DUP1 PUSH2 0x50F PUSH1 0x1 SWAP4 PUSH1 0x3F NOT DUP11 DUP3 SUB ADD DUP7 MSTORE DUP9 MLOAD PUSH2 0x1AF6 JUMP JUMPDEST SWAP7 ADD SWAP3 ADD SWAP7 ADD SWAP6 SWAP3 SWAP2 SWAP1 SWAP3 PUSH2 0x4E6 JUMP JUMPDEST PUSH1 0x1 DUP7 DUP2 SWAP3 PUSH1 0x40 SWAP10 SWAP9 SWAP10 MLOAD PUSH2 0x53F DUP2 PUSH2 0x538 DUP2 DUP10 PUSH2 0x1E23 JUMP JUMPDEST SUB DUP3 PUSH2 0x1B6D JUMP JUMPDEST DUP2 MSTORE ADD SWAP3 ADD SWAP3 ADD SWAP2 SWAP1 SWAP6 SWAP5 SWAP6 PUSH2 0x4B8 JUMP JUMPDEST CALLVALUE PUSH2 0x1D4 JUMPI PUSH1 0x60 CALLDATASIZE PUSH1 0x3 NOT ADD SLT PUSH2 0x1D4 JUMPI PUSH1 0x4 CALLDATALOAD PUSH1 0x1 PUSH1 0x1 PUSH1 0x40 SHL SUB DUP2 GT PUSH2 0x1D4 JUMPI PUSH2 0x580 SWAP1 CALLDATASIZE SWAP1 PUSH1 0x4 ADD PUSH2 0x1AC9 JUMP JUMPDEST PUSH1 0x24 CALLDATALOAD SWAP2 SWAP1 PUSH1 0x1 PUSH1 0x1 PUSH1 0xA0 SHL SUB DUP4 AND DUP4 SUB PUSH2 0x1D4 JUMPI PUSH1 0x44 CALLDATALOAD PUSH1 0x1 PUSH1 0x1 PUSH1 0x40 SHL SUB DUP2 GT PUSH2 0x1D4 JUMPI PUSH2 0x5B4 SWAP1 CALLDATASIZE SWAP1 PUSH1 0x4 ADD PUSH2 0x1AC9 JUMP JUMPDEST PUSH2 0x5DB PUSH1 0xFF PUSH1 0xB PUSH1 0x40 SWAP6 SWAP5 SWAP6 MLOAD DUP6 DUP9 DUP3 CALLDATACOPY PUSH1 0x20 DUP2 DUP8 DUP2 ADD PUSH1 0x0 DUP2 MSTORE SUB ADD SWAP1 KECCAK256 ADD SLOAD AND PUSH2 0x1D77 JUMP JUMPDEST PUSH2 0x60A PUSH1 0x40 MLOAD DUP4 DUP7 DUP3 CALLDATACOPY PUSH1 0x0 DUP5 DUP3 ADD SWAP1 DUP2 MSTORE PUSH1 0x20 SWAP1 DUP3 SWAP1 SUB ADD SWAP1 KECCAK256 PUSH1 0x7 ADD SLOAD PUSH1 0x1 PUSH1 0x1 PUSH1 0xA0 SHL SUB AND CALLER EQ PUSH2 0x1DC3 JUMP JUMPDEST PUSH1 0x1 PUSH1 0x1 PUSH1 0xA0 SHL SUB DUP6 AND ISZERO PUSH2 0xAB4 JUMPI PUSH1 0x1 PUSH1 0x1 PUSH1 0xA0 SHL SUB DUP6 AND CALLER EQ PUSH2 0xA6F JUMPI DUP1 ISZERO PUSH2 0xA2A JUMPI PUSH1 0x40 MLOAD DUP3 DUP6 DUP3 CALLDATACOPY PUSH1 0x20 DUP2 DUP5 DUP2 ADD PUSH1 0x0 DUP2 MSTORE SUB ADD SWAP1 KECCAK256 SWAP3 PUSH1 0x1 DUP1 PUSH1 0xA0 SHL SUB PUSH1 0x7 DUP6 ADD SLOAD AND SWAP4 PUSH1 0x40 MLOAD PUSH2 0x65F DUP2 PUSH2 0x1B52 JUMP JUMPDEST DUP6 DUP2 MSTORE PUSH1 0x1 PUSH1 0x1 PUSH1 0xA0 SHL SUB DUP9 AND PUSH1 0x20 DUP3 ADD MSTORE PUSH2 0x67C CALLDATASIZE DUP6 DUP6 PUSH2 0x1B8E JUMP JUMPDEST PUSH1 0x40 DUP3 ADD MSTORE TIMESTAMP PUSH1 0x60 DUP3 ADD MSTORE PUSH1 0x40 MLOAD DUP6 DUP9 DUP3 CALLDATACOPY PUSH1 0x1 DUP7 DUP3 ADD MSTORE PUSH1 0x20 DUP2 DUP8 DUP2 ADD SUB ADD SWAP1 KECCAK256 SWAP1 DUP2 SLOAD SWAP2 PUSH1 0x1 PUSH1 0x40 SHL DUP4 LT ISZERO PUSH2 0x9FE JUMPI PUSH1 0x1 DUP4 ADD DUP1 DUP3 SSTORE DUP4 LT ISZERO PUSH2 0xA14 JUMPI PUSH1 0x0 SWAP1 DUP2 MSTORE PUSH1 0x20 SWAP1 DUP2 SWAP1 KECCAK256 DUP3 MLOAD PUSH1 0x2 DUP6 SWAP1 SHL DUP3 ADD DUP1 SLOAD PUSH1 0x1 PUSH1 0x1 PUSH1 0xA0 SHL SUB NOT SWAP1 DUP2 AND PUSH1 0x1 PUSH1 0x1 PUSH1 0xA0 SHL SUB SWAP4 DUP5 AND OR DUP3 SSTORE SWAP4 DUP6 ADD MLOAD PUSH1 0x1 SWAP2 SWAP1 SWAP2 ADD DUP1 SLOAD SWAP1 SWAP5 AND SWAP2 AND OR SWAP1 SWAP2 SSTORE PUSH1 0x40 DUP3 ADD MLOAD DUP1 MLOAD SWAP2 SWAP3 SWAP2 SWAP1 PUSH1 0x1 PUSH1 0x1 PUSH1 0x40 SHL SUB DUP3 GT PUSH2 0x9FE JUMPI PUSH2 0x73C DUP3 PUSH2 0x72F PUSH1 0x2 DUP9 DUP2 SHL DUP9 ADD ADD SLOAD PUSH2 0x1BD4 JUMP JUMPDEST PUSH1 0x2 DUP9 DUP2 SHL DUP9 ADD ADD PUSH2 0x1C25 JUMP JUMPDEST PUSH1 0x20 SWAP1 PUSH1 0x1F DUP4 GT PUSH1 0x1 EQ PUSH2 0x978 JUMPI PUSH1 0x8 SWAP6 SWAP4 DUP4 PUSH1 0x3 SWAP5 PUSH2 0x7AE SWAP12 SWAP11 SWAP10 SWAP8 SWAP5 PUSH1 0x60 SWAP5 PUSH1 0x0 SWAP3 PUSH2 0x96D JUMPI JUMPDEST POP POP DUP2 PUSH1 0x1 SHL SWAP2 PUSH1 0x0 NOT SWAP1 DUP8 SHL SHR NOT AND OR PUSH1 0x2 DUP7 DUP2 SHL DUP6 ADD ADD SSTORE JUMPDEST ADD MLOAD PUSH1 0x2 SWAP4 SWAP1 SWAP4 SHL ADD ADD SSTORE PUSH1 0x7 DUP2 ADD DUP1 SLOAD PUSH1 0x1 PUSH1 0x1 PUSH1 0xA0 SHL SUB NOT AND PUSH1 0x1 PUSH1 0x1 PUSH1 0xA0 SHL SUB DUP12 AND OR SWAP1 SSTORE ADD PUSH2 0x1C84 JUMP JUMPDEST PUSH1 0x1 DUP1 PUSH1 0xA0 SHL SUB DUP5 AND PUSH1 0x0 MSTORE PUSH1 0x2 PUSH1 0x20 MSTORE PUSH2 0x7CE DUP2 DUP5 PUSH1 0x40 PUSH1 0x0 KECCAK256 PUSH2 0x1D47 JUMP JUMPDEST PUSH2 0x7D9 CALLDATASIZE DUP3 DUP6 PUSH2 0x1B8E JUMP JUMPDEST SWAP3 DUP3 PUSH1 0x0 MSTORE PUSH1 0x2 PUSH1 0x20 MSTORE PUSH1 0x40 PUSH1 0x0 KECCAK256 PUSH1 0x0 PUSH1 0x20 DUP7 ADD SWAP1 JUMPDEST DUP3 SLOAD DUP1 DUP3 LT ISZERO PUSH2 0x960 JUMPI PUSH2 0x538 PUSH2 0x817 PUSH2 0x80A DUP5 DUP8 PUSH2 0x1C6C JUMP JUMPDEST POP PUSH1 0x40 MLOAD SWAP3 DUP4 DUP1 SWAP3 PUSH2 0x1E23 JUMP JUMPDEST PUSH1 0x20 DUP2 MLOAD SWAP2 ADD KECCAK256 DUP9 MLOAD DUP5 KECCAK256 EQ PUSH2 0x830 JUMPI POP PUSH1 0x1 ADD PUSH2 0x7F0 JUMP JUMPDEST SWAP3 SWAP4 SWAP5 SWAP6 SWAP7 POP SWAP1 POP PUSH1 0x0 NOT SWAP2 DUP3 DUP2 ADD SWAP1 DUP2 GT PUSH2 0x94A JUMPI PUSH2 0x853 PUSH2 0x85B SWAP2 DUP6 PUSH2 0x1C6C JUMP JUMPDEST POP SWAP2 DUP5 PUSH2 0x1C6C JUMP JUMPDEST SWAP2 SWAP1 SWAP2 PUSH2 0x91E JUMPI PUSH2 0x86B SWAP2 PUSH2 0x1ED0 JUMP JUMPDEST DUP2 SLOAD DUP1 ISZERO PUSH2 0x934 JUMPI ADD SWAP1 PUSH2 0x87F DUP3 DUP3 PUSH2 0x1C6C JUMP JUMPDEST PUSH2 0x91E JUMPI PUSH2 0x88D DUP2 SLOAD PUSH2 0x1BD4 JUMP JUMPDEST SWAP1 DUP2 PUSH2 0x8E0 JUMPI JUMPDEST POP POP SSTORE JUMPDEST DUP2 PUSH1 0x40 MLOAD SWAP3 DUP4 SWAP3 DUP4 CALLDATACOPY DUP2 ADD PUSH1 0x0 DUP2 MSTORE SUB SWAP1 KECCAK256 PUSH32 0xF941A1CA8D1A22529C1133827AAAC1A11678210C5AED825DE4EE86C1C387281C PUSH1 0x20 PUSH1 0x40 MLOAD SWAP5 TIMESTAMP DUP7 MSTORE PUSH1 0x1 DUP1 PUSH1 0xA0 SHL SUB AND SWAP5 LOG4 STOP JUMPDEST DUP2 PUSH1 0x1F PUSH1 0x0 SWAP4 GT PUSH1 0x1 EQ PUSH2 0x8F8 JUMPI POP SSTORE JUMPDEST DUP7 DUP1 PUSH2 0x894 JUMP JUMPDEST SWAP1 DUP1 DUP4 SWAP2 DUP3 MSTORE PUSH2 0x917 PUSH1 0x1F PUSH1 0x20 DUP5 KECCAK256 SWAP5 ADD PUSH1 0x5 SHR DUP5 ADD PUSH1 0x1 DUP6 ADD PUSH2 0x1C0E JUMP JUMPDEST SSTORE SSTORE PUSH2 0x8F1 JUMP JUMPDEST PUSH4 0x4E487B71 PUSH1 0xE0 SHL PUSH1 0x0 MSTORE PUSH1 0x0 PUSH1 0x4 MSTORE PUSH1 0x24 PUSH1 0x0 REVERT JUMPDEST PUSH4 0x4E487B71 PUSH1 0xE0 SHL PUSH1 0x0 MSTORE PUSH1 0x31 PUSH1 0x4 MSTORE PUSH1 0x24 PUSH1 0x0 REVERT JUMPDEST PUSH4 0x4E487B71 PUSH1 0xE0 SHL PUSH1 0x0 MSTORE PUSH1 0x11 PUSH1 0x4 MSTORE PUSH1 0x24 PUSH1 0x0 REVERT JUMPDEST POP POP POP POP SWAP1 SWAP2 SWAP3 POP PUSH2 0x898 JUMP JUMPDEST ADD MLOAD SWAP1 POP CODESIZE DUP1 PUSH2 0x765 JUMP JUMPDEST SWAP1 PUSH1 0x2 DUP7 DUP2 SHL DUP7 ADD ADD PUSH1 0x0 MSTORE PUSH1 0x20 PUSH1 0x0 KECCAK256 SWAP2 PUSH1 0x0 JUMPDEST PUSH1 0x1F NOT DUP6 AND DUP2 LT PUSH2 0x9E6 JUMPI POP SWAP4 PUSH1 0x1 DUP5 PUSH2 0x7AE SWAP12 SWAP11 SWAP10 SWAP8 SWAP5 PUSH1 0x60 SWAP5 PUSH1 0x8 SWAP11 SWAP9 PUSH1 0x3 SWAP9 PUSH1 0x1F NOT DUP2 AND LT PUSH2 0x9CE JUMPI JUMPDEST POP POP POP DUP2 SHL ADD PUSH1 0x2 DUP7 DUP2 SHL DUP6 ADD ADD SSTORE PUSH2 0x780 JUMP JUMPDEST ADD MLOAD PUSH1 0x0 NOT DUP4 DUP10 SHL PUSH1 0xF8 AND SHR NOT AND SWAP1 SSTORE CODESIZE DUP1 DUP1 PUSH2 0x9BA JUMP JUMPDEST SWAP2 SWAP3 PUSH1 0x20 PUSH1 0x1 DUP2 SWAP3 DUP7 DUP6 ADD MLOAD DUP2 SSTORE ADD SWAP5 ADD SWAP3 ADD PUSH2 0x98D JUMP JUMPDEST PUSH4 0x4E487B71 PUSH1 0xE0 SHL PUSH1 0x0 MSTORE PUSH1 0x41 PUSH1 0x4 MSTORE PUSH1 0x24 PUSH1 0x0 REVERT JUMPDEST PUSH4 0x4E487B71 PUSH1 0xE0 SHL PUSH1 0x0 MSTORE PUSH1 0x32 PUSH1 0x4 MSTORE PUSH1 0x24 PUSH1 0x0 REVERT JUMPDEST PUSH1 0x40 MLOAD PUSH3 0x461BCD PUSH1 0xE5 SHL DUP2 MSTORE PUSH1 0x20 PUSH1 0x4 DUP3 ADD MSTORE PUSH1 0x1E PUSH1 0x24 DUP3 ADD MSTORE PUSH32 0x4E6577206F776E6572206E616D652063616E6E6F7420626520656D7074790000 PUSH1 0x44 DUP3 ADD MSTORE PUSH1 0x64 SWAP1 REVERT JUMPDEST PUSH1 0x40 MLOAD PUSH3 0x461BCD PUSH1 0xE5 SHL DUP2 MSTORE PUSH1 0x20 PUSH1 0x4 DUP3 ADD MSTORE PUSH1 0x1B PUSH1 0x24 DUP3 ADD MSTORE PUSH32 0x43616E6E6F74207472616E7366657220746F20796F757273656C660000000000 PUSH1 0x44 DUP3 ADD MSTORE PUSH1 0x64 SWAP1 REVERT JUMPDEST PUSH1 0x40 MLOAD PUSH3 0x461BCD PUSH1 0xE5 SHL DUP2 MSTORE PUSH1 0x20 PUSH1 0x4 DUP3 ADD MSTORE PUSH1 0x19 PUSH1 0x24 DUP3 ADD MSTORE PUSH32 0x496E76616C6964206E6577206F776E6572206164647265737300000000000000 PUSH1 0x44 DUP3 ADD MSTORE PUSH1 0x64 SWAP1 REVERT JUMPDEST CALLVALUE PUSH2 0x1D4 JUMPI PUSH1 0x20 DUP1 PUSH1 0x3 NOT CALLDATASIZE ADD SLT PUSH2 0x1D4 JUMPI PUSH1 0x4 CALLDATALOAD PUSH1 0x1 PUSH1 0x1 PUSH1 0x40 SHL SUB DUP2 GT PUSH2 0x1D4 JUMPI PUSH2 0xB2A SWAP1 CALLDATASIZE SWAP1 PUSH1 0x4 ADD PUSH2 0x1AC9 JUMP JUMPDEST PUSH2 0xB50 PUSH1 0xFF PUSH1 0xB PUSH1 0x40 SWAP6 SWAP5 SWAP6 MLOAD DUP5 DUP8 DUP3 CALLDATACOPY DUP6 DUP2 DUP7 DUP2 ADD PUSH1 0x0 DUP2 MSTORE SUB ADD SWAP1 KECCAK256 ADD SLOAD AND PUSH2 0x1D77 JUMP JUMPDEST DUP1 PUSH1 0x40 MLOAD SWAP4 DUP5 CALLDATACOPY DUP3 ADD SWAP2 DUP2 DUP2 PUSH1 0x1 SWAP5 DUP6 DUP2 MSTORE SUB ADD SWAP1 KECCAK256 DUP1 SLOAD SWAP2 PUSH2 0xB72 DUP4 PUSH2 0x1EB9 JUMP JUMPDEST SWAP3 PUSH2 0xB80 PUSH1 0x40 MLOAD SWAP5 DUP6 PUSH2 0x1B6D JUMP JUMPDEST DUP1 DUP5 MSTORE DUP2 DUP5 ADD DUP1 SWAP4 PUSH1 0x0 MSTORE DUP3 PUSH1 0x0 KECCAK256 PUSH1 0x0 SWAP2 JUMPDEST DUP4 DUP4 LT PUSH2 0xC32 JUMPI POP POP POP POP PUSH1 0x40 MLOAD SWAP4 DUP5 SWAP4 DUP3 DUP6 ADD SWAP1 DUP4 DUP7 MSTORE MLOAD DUP1 SWAP2 MSTORE PUSH1 0x40 DUP6 ADD SWAP3 PUSH1 0x40 DUP3 PUSH1 0x5 SHL DUP8 ADD ADD SWAP5 SWAP4 PUSH1 0x0 SWAP1 JUMPDEST DUP4 DUP3 LT PUSH2 0xBD0 JUMPI DUP8 DUP8 SUB DUP9 RETURN JUMPDEST SWAP2 DUP5 SWAP7 DUP2 SWAP6 SWAP3 SWAP5 SWAP7 SWAP9 POP DUP2 SWAP1 PUSH1 0x3F NOT DUP12 DUP3 SUB ADD DUP6 MSTORE DUP10 MLOAD SWAP1 PUSH1 0x1 DUP1 PUSH1 0xA0 SHL SUB DUP1 DUP4 MLOAD AND DUP3 MSTORE DUP4 DUP4 ADD MLOAD AND DUP4 DUP3 ADD MSTORE PUSH2 0xC16 PUSH1 0x40 DUP4 ADD MLOAD PUSH1 0x80 DUP1 PUSH1 0x40 DUP6 ADD MSTORE DUP4 ADD SWAP1 PUSH2 0x1AF6 JUMP JUMPDEST SWAP2 PUSH1 0x60 DUP1 SWAP2 ADD MLOAD SWAP2 ADD MSTORE SWAP9 ADD SWAP3 ADD SWAP3 ADD DUP8 SWAP7 SWAP6 SWAP4 SWAP2 SWAP5 SWAP3 PUSH2 0xBC3 JUMP JUMPDEST SWAP7 PUSH1 0x4 DUP6 DUP3 SWAP8 SWAP9 SWAP7 SWAP10 PUSH1 0x40 MLOAD PUSH2 0xC47 DUP2 PUSH2 0x1B52 JUMP JUMPDEST DUP6 SLOAD PUSH1 0x1 PUSH1 0x1 PUSH1 0xA0 SHL SUB SWAP1 DUP2 AND DUP3 MSTORE DUP6 DUP8 ADD SLOAD AND DUP4 DUP3 ADD MSTORE PUSH1 0x40 MLOAD PUSH2 0xC73 DUP2 PUSH2 0x538 DUP2 PUSH1 0x2 DUP12 ADD PUSH2 0x1E23 JUMP JUMPDEST PUSH1 0x40 DUP3 ADD MSTORE PUSH1 0x3 DUP7 ADD SLOAD PUSH1 0x60 DUP3 ADD MSTORE DUP2 MSTORE ADD SWAP3 ADD SWAP3 ADD SWAP2 SWAP1 SWAP7 SWAP4 SWAP6 SWAP5 SWAP7 PUSH2 0xB93 JUMP JUMPDEST CALLVALUE PUSH2 0x1D4 JUMPI PUSH1 0x0 CALLDATASIZE PUSH1 0x3 NOT ADD SLT PUSH2 0x1D4 JUMPI PUSH1 0x20 PUSH1 0x3 SLOAD PUSH1 0x40 MLOAD SWAP1 DUP2 MSTORE RETURN JUMPDEST CALLVALUE PUSH2 0x1D4 JUMPI PUSH1 0x20 CALLDATASIZE PUSH1 0x3 NOT ADD SLT PUSH2 0x1D4 JUMPI PUSH1 0x4 CALLDATALOAD PUSH1 0x1 PUSH1 0x1 PUSH1 0x40 SHL SUB DUP2 GT PUSH2 0x1D4 JUMPI PUSH2 0xCE5 PUSH1 0x20 SWAP2 CALLDATASIZE SWAP1 PUSH1 0x4 ADD PUSH2 0x1AC9 JUMP JUMPDEST SWAP2 SWAP1 DUP3 PUSH1 0x40 MLOAD SWAP4 DUP5 SWAP3 DUP4 CALLDATACOPY DUP2 ADD PUSH1 0x0 DUP2 MSTORE SUB ADD SWAP1 KECCAK256 PUSH2 0x160 PUSH2 0xE52 PUSH1 0x40 MLOAD SWAP3 PUSH2 0xD0D DUP5 PUSH2 0x1B36 JUMP JUMPDEST PUSH1 0x40 MLOAD PUSH2 0xD1E DUP2 PUSH2 0x538 DUP2 DUP6 PUSH2 0x1E23 JUMP JUMPDEST DUP5 MSTORE PUSH1 0x40 MLOAD PUSH2 0xD34 DUP2 PUSH2 0x538 DUP2 PUSH1 0x1 DUP7 ADD PUSH2 0x1E23 JUMP JUMPDEST PUSH1 0x20 DUP6 ADD SWAP1 DUP2 MSTORE PUSH1 0x40 MLOAD PUSH2 0xD4F DUP2 PUSH2 0x538 DUP2 PUSH1 0x2 DUP8 ADD PUSH2 0x1E23 JUMP JUMPDEST PUSH1 0x40 DUP7 ADD MSTORE PUSH1 0x40 MLOAD PUSH2 0xD68 DUP2 PUSH2 0x538 DUP2 PUSH1 0x3 DUP8 ADD PUSH2 0x1E23 JUMP JUMPDEST PUSH1 0x60 DUP7 ADD MSTORE PUSH1 0x4 DUP3 ADD SLOAD PUSH1 0x80 DUP7 ADD MSTORE PUSH1 0x40 MLOAD PUSH2 0xD8B DUP2 PUSH2 0x538 DUP2 PUSH1 0x5 DUP8 ADD PUSH2 0x1E23 JUMP JUMPDEST PUSH1 0xA0 DUP7 ADD MSTORE PUSH1 0x40 MLOAD PUSH2 0xDA4 DUP2 PUSH2 0x538 DUP2 PUSH1 0x6 DUP8 ADD PUSH2 0x1E23 JUMP JUMPDEST PUSH1 0xC0 DUP7 ADD MSTORE PUSH2 0xE3F PUSH1 0x1 DUP1 PUSH1 0xA0 SHL SUB DUP1 PUSH1 0x7 DUP6 ADD SLOAD AND PUSH1 0xE0 DUP9 ADD SWAP1 DUP2 MSTORE PUSH1 0x40 MLOAD SWAP8 PUSH2 0xDDD DUP10 PUSH2 0xDD6 DUP2 PUSH1 0x8 DUP11 ADD PUSH2 0x1E23 JUMP JUMPDEST SUB DUP11 PUSH2 0x1B6D JUMP JUMPDEST PUSH2 0x100 DUP2 ADD SWAP9 DUP10 MSTORE PUSH1 0x40 MLOAD PUSH2 0xDF9 DUP2 PUSH2 0x538 DUP2 PUSH1 0x9 DUP12 ADD PUSH2 0x1E23 JUMP JUMPDEST PUSH2 0x120 DUP3 ADD MSTORE PUSH1 0xFF PUSH1 0xB PUSH1 0xA DUP9 ADD SLOAD SWAP8 DUP9 PUSH2 0x140 DUP6 ADD MSTORE ADD SLOAD AND ISZERO ISZERO SWAP8 DUP9 SWAP2 ADD MSTORE MLOAD AND SWAP6 MLOAD SWAP2 MLOAD SWAP2 PUSH1 0x40 MLOAD SWAP7 DUP8 SWAP7 DUP8 MSTORE PUSH1 0x20 DUP8 ADD MSTORE PUSH1 0xA0 PUSH1 0x40 DUP8 ADD MSTORE PUSH1 0xA0 DUP7 ADD SWAP1 PUSH2 0x1AF6 JUMP JUMPDEST SWAP2 PUSH1 0x60 DUP6 ADD MSTORE DUP4 DUP3 SUB PUSH1 0x80 DUP6 ADD MSTORE PUSH2 0x1AF6 JUMP JUMPDEST SUB SWAP1 RETURN JUMPDEST CALLVALUE PUSH2 0x1D4 JUMPI PUSH1 0x20 CALLDATASIZE PUSH1 0x3 NOT ADD SLT PUSH2 0x1D4 JUMPI PUSH1 0x4 CALLDATALOAD PUSH1 0x3 SLOAD DUP2 LT ISZERO PUSH2 0xEC5 JUMPI PUSH2 0x538 PUSH2 0xEB1 PUSH2 0xE52 SWAP3 PUSH1 0x3 PUSH1 0x0 MSTORE PUSH1 0x40 MLOAD SWAP3 DUP4 DUP1 SWAP3 PUSH32 0xC2575A0E9E593C00F959F8C92F12DB2869C3395A3B0502D05E2516446F71F85B ADD PUSH2 0x1E23 JUMP JUMPDEST PUSH1 0x40 MLOAD SWAP2 DUP3 SWAP2 PUSH1 0x20 DUP4 MSTORE PUSH1 0x20 DUP4 ADD SWAP1 PUSH2 0x1AF6 JUMP JUMPDEST PUSH1 0x40 MLOAD PUSH3 0x461BCD PUSH1 0xE5 SHL DUP2 MSTORE PUSH1 0x20 PUSH1 0x4 DUP3 ADD MSTORE PUSH1 0x13 PUSH1 0x24 DUP3 ADD MSTORE PUSH19 0x496E646578206F7574206F6620626F756E6473 PUSH1 0x68 SHL PUSH1 0x44 DUP3 ADD MSTORE PUSH1 0x64 SWAP1 REVERT JUMPDEST CALLVALUE PUSH2 0x1D4 JUMPI PUSH2 0x120 CALLDATASIZE PUSH1 0x3 NOT ADD SLT PUSH2 0x1D4 JUMPI PUSH1 0x4 CALLDATALOAD PUSH1 0x1 PUSH1 0x1 PUSH1 0x40 SHL SUB DUP2 GT PUSH2 0x1D4 JUMPI PUSH2 0xF31 SWAP1 CALLDATASIZE SWAP1 PUSH1 0x4 ADD PUSH2 0x1AC9 JUMP JUMPDEST SWAP1 PUSH1 0xC0 MSTORE PUSH1 0xC0 MLOAD PUSH1 0xA0 MSTORE PUSH1 0x24 CALLDATALOAD PUSH1 0x1 PUSH1 0x1 PUSH1 0x40 SHL SUB DUP2 GT PUSH2 0x1D4 JUMPI PUSH2 0xF5A SWAP1 CALLDATASIZE SWAP1 PUSH1 0x4 ADD PUSH2 0x1AC9 JUMP JUMPDEST PUSH1 0x44 CALLDATALOAD PUSH1 0x1 PUSH1 0x1 PUSH1 0x40 SHL SUB DUP2 GT PUSH2 0x1D4 JUMPI PUSH2 0xF79 SWAP1 CALLDATASIZE SWAP1 PUSH1 0x4 ADD PUSH2 0x1AC9 JUMP JUMPDEST SWAP3 SWAP1 SWAP2 PUSH1 0x1 PUSH1 0x1 PUSH1 0x40 SHL SUB PUSH1 0x64 CALLDATALOAD GT PUSH2 0x1D4 JUMPI PUSH2 0xF9B CALLDATASIZE PUSH1 0x64 CALLDATALOAD PUSH1 0x4 ADD PUSH2 0x1AC9 JUMP JUMPDEST SWAP5 SWAP1 SWAP4 PUSH1 0x1 PUSH1 0x1 PUSH1 0x40 SHL SUB PUSH1 0xA4 CALLDATALOAD GT PUSH2 0x1D4 JUMPI PUSH2 0xFBD CALLDATASIZE PUSH1 0xA4 CALLDATALOAD PUSH1 0x4 ADD PUSH2 0x1AC9 JUMP JUMPDEST SWAP3 SWAP1 SWAP2 PUSH1 0xC4 CALLDATALOAD PUSH1 0x1 PUSH1 0x1 PUSH1 0x40 SHL SUB DUP2 GT PUSH2 0x1D4 JUMPI PUSH2 0xFDF SWAP1 CALLDATASIZE SWAP1 PUSH1 0x4 ADD PUSH2 0x1AC9 JUMP JUMPDEST SWAP1 SWAP2 PUSH1 0xE4 CALLDATALOAD PUSH1 0x1 PUSH1 0x1 PUSH1 0x40 SHL SUB DUP2 GT PUSH2 0x1D4 JUMPI PUSH2 0x1000 SWAP1 CALLDATASIZE SWAP1 PUSH1 0x4 ADD PUSH2 0x1AC9 JUMP JUMPDEST SWAP6 SWAP1 SWAP7 PUSH2 0x104 CALLDATALOAD SWAP10 PUSH1 0x1 PUSH1 0x1 PUSH1 0x40 SHL SUB DUP12 GT PUSH2 0x1D4 JUMPI DUP14 SWAP12 PUSH1 0xFF PUSH2 0x102A PUSH1 0xB SWAP14 CALLDATASIZE SWAP1 PUSH1 0x4 ADD PUSH2 0x1AC9 JUMP JUMPDEST SWAP14 SWAP1 SWAP15 PUSH1 0x20 PUSH1 0x40 MLOAD DUP3 DUP2 SWAP4 PUSH1 0xC0 MLOAD DUP4 CALLDATACOPY PUSH1 0x0 DUP2 DUP4 ADD MSTORE DUP2 ADD SUB ADD SWAP1 KECCAK256 ADD SLOAD AND PUSH2 0x1A2F JUMPI DUP15 ISZERO PUSH2 0x19EA JUMPI DUP11 ISZERO PUSH2 0x19A5 JUMPI PUSH1 0x84 CALLDATALOAD ISZERO PUSH2 0x1960 JUMPI DUP9 ISZERO PUSH2 0x191B JUMPI PUSH2 0x1111 SWAP14 DUP16 PUSH2 0x10DE SWAP7 PUSH2 0x10EC SWAP11 PUSH2 0x10AB PUSH2 0x1102 SWAP16 SWAP7 PUSH2 0x10C7 SWAP8 PUSH2 0x10A0 PUSH2 0x10B9 SWAP7 PUSH2 0x1096 PUSH1 0x40 MLOAD DUP1 PUSH1 0x80 MSTORE PUSH2 0x1B36 JUMP JUMPDEST CALLDATASIZE SWAP1 PUSH1 0xA0 MLOAD PUSH2 0x1B8E JUMP JUMPDEST PUSH1 0x80 MLOAD MSTORE CALLDATASIZE SWAP2 PUSH2 0x1B8E JUMP JUMPDEST PUSH1 0x20 PUSH1 0x80 MLOAD ADD MSTORE CALLDATASIZE SWAP2 PUSH2 0x1B8E JUMP JUMPDEST PUSH1 0x40 PUSH1 0x80 MLOAD ADD MSTORE CALLDATASIZE SWAP2 PUSH2 0x1B8E JUMP JUMPDEST PUSH1 0x60 PUSH1 0x80 MLOAD ADD MSTORE PUSH1 0x84 CALLDATALOAD PUSH1 0x80 DUP1 MLOAD ADD MSTORE CALLDATASIZE SWAP2 PUSH2 0x1B8E JUMP JUMPDEST PUSH1 0xA0 PUSH1 0x80 MLOAD ADD MSTORE CALLDATASIZE SWAP2 PUSH2 0x1B8E JUMP JUMPDEST PUSH1 0xC0 PUSH1 0x80 MLOAD ADD MSTORE CALLER PUSH1 0xE0 PUSH1 0x80 MLOAD ADD MSTORE CALLDATASIZE SWAP2 PUSH2 0x1B8E JUMP JUMPDEST PUSH2 0x100 PUSH1 0x80 MLOAD ADD MSTORE CALLDATASIZE SWAP2 PUSH2 0x1B8E JUMP JUMPDEST PUSH2 0x120 PUSH1 0x80 MLOAD ADD MSTORE TIMESTAMP PUSH2 0x140 PUSH1 0x80 MLOAD ADD MSTORE PUSH1 0x1 PUSH2 0x160 PUSH1 0x80 MLOAD ADD MSTORE PUSH1 0x40 MLOAD DUP2 PUSH1 0xA0 MLOAD DUP3 CALLDATACOPY PUSH1 0x20 DUP2 DUP4 DUP2 ADD PUSH1 0x0 DUP2 MSTORE SUB ADD SWAP1 KECCAK256 PUSH1 0x80 MLOAD MLOAD SWAP2 DUP3 MLOAD PUSH1 0x1 PUSH1 0x1 PUSH1 0x40 SHL SUB DUP2 GT PUSH2 0x9FE JUMPI PUSH2 0x116C DUP2 PUSH2 0x1166 DUP6 SLOAD PUSH2 0x1BD4 JUMP JUMPDEST DUP6 PUSH2 0x1C25 JUMP JUMPDEST PUSH1 0x20 PUSH1 0x1F DUP3 GT PUSH1 0x1 EQ PUSH2 0x18B3 JUMPI DUP2 SWAP3 SWAP4 SWAP5 PUSH1 0x0 SWAP3 PUSH2 0x18A8 JUMPI JUMPDEST POP POP DUP2 PUSH1 0x1 SHL SWAP2 PUSH1 0x0 NOT SWAP1 PUSH1 0x3 SHL SHR NOT AND OR DUP3 SSTORE JUMPDEST PUSH1 0x20 PUSH1 0x80 MLOAD ADD MLOAD SWAP2 DUP3 MLOAD PUSH1 0x1 PUSH1 0x1 PUSH1 0x40 SHL SUB DUP2 GT PUSH2 0x9FE JUMPI PUSH2 0x11CC DUP2 PUSH2 0x11C3 PUSH1 0x1 DUP6 ADD SLOAD PUSH2 0x1BD4 JUMP JUMPDEST PUSH1 0x1 DUP6 ADD PUSH2 0x1C25 JUMP JUMPDEST PUSH1 0x20 PUSH1 0x1F DUP3 GT PUSH1 0x1 EQ PUSH2 0x183A JUMPI DUP2 SWAP3 SWAP4 SWAP5 PUSH1 0x0 SWAP3 PUSH2 0x182F JUMPI JUMPDEST POP POP DUP2 PUSH1 0x1 SHL SWAP2 PUSH1 0x0 NOT SWAP1 PUSH1 0x3 SHL SHR NOT AND OR PUSH1 0x1 DUP3 ADD SSTORE JUMPDEST PUSH1 0x40 PUSH1 0x80 MLOAD ADD MLOAD SWAP2 DUP3 MLOAD PUSH1 0x1 PUSH1 0x1 PUSH1 0x40 SHL SUB DUP2 GT PUSH2 0x9FE JUMPI PUSH2 0x122F DUP2 PUSH2 0x1226 PUSH1 0x2 DUP7 ADD SLOAD PUSH2 0x1BD4 JUMP JUMPDEST PUSH1 0x2 DUP7 ADD PUSH2 0x1C25 JUMP JUMPDEST PUSH1 0x20 PUSH1 0x1F DUP3 GT PUSH1 0x1 EQ PUSH2 0x17C1 JUMPI DUP2 SWAP3 SWAP4 SWAP5 PUSH1 0x0 SWAP3 PUSH2 0x17B6 JUMPI JUMPDEST POP POP DUP2 PUSH1 0x1 SHL SWAP2 PUSH1 0x0 NOT SWAP1 PUSH1 0x3 SHL SHR NOT AND OR PUSH1 0x2 DUP4 ADD SSTORE JUMPDEST PUSH1 0x60 PUSH1 0x80 MLOAD ADD MLOAD SWAP2 DUP3 MLOAD PUSH1 0x1 PUSH1 0x1 PUSH1 0x40 SHL SUB DUP2 GT PUSH2 0x9FE JUMPI PUSH2 0x1292 DUP2 PUSH2 0x1289 PUSH1 0x3 DUP6 ADD SLOAD PUSH2 0x1BD4 JUMP JUMPDEST PUSH1 0x3 DUP6 ADD PUSH2 0x1C25 JUMP JUMPDEST PUSH1 0x20 PUSH1 0x1F DUP3 GT PUSH1 0x1 EQ PUSH2 0x1748 JUMPI DUP2 SWAP3 SWAP4 SWAP5 PUSH1 0x0 SWAP3 PUSH2 0x173D JUMPI JUMPDEST POP POP DUP2 PUSH1 0x1 SHL SWAP2 PUSH1 0x0 NOT SWAP1 PUSH1 0x3 SHL SHR NOT AND OR PUSH1 0x3 DUP3 ADD SSTORE JUMPDEST PUSH1 0xA0 PUSH1 0x80 MLOAD PUSH1 0x80 DUP2 ADD MLOAD PUSH1 0x4 DUP5 ADD SSTORE ADD MLOAD SWAP2 DUP3 MLOAD PUSH1 0x1 PUSH1 0x1 PUSH1 0x40 SHL SUB DUP2 GT PUSH2 0x9FE JUMPI PUSH2 0x12FF DUP2 PUSH2 0x12F6 PUSH1 0x5 DUP7 ADD SLOAD PUSH2 0x1BD4 JUMP JUMPDEST PUSH1 0x5 DUP7 ADD PUSH2 0x1C25 JUMP JUMPDEST PUSH1 0x20 PUSH1 0x1F DUP3 GT PUSH1 0x1 EQ PUSH2 0x16CF JUMPI DUP2 SWAP3 SWAP4 SWAP5 PUSH1 0x0 SWAP3 PUSH2 0x16C4 JUMPI JUMPDEST POP POP DUP2 PUSH1 0x1 SHL SWAP2 PUSH1 0x0 NOT SWAP1 PUSH1 0x3 SHL SHR NOT AND OR PUSH1 0x5 DUP4 ADD SSTORE JUMPDEST PUSH1 0xC0 PUSH1 0x80 MLOAD ADD MLOAD SWAP2 DUP3 MLOAD PUSH1 0x1 PUSH1 0x1 PUSH1 0x40 SHL SUB DUP2 GT PUSH2 0x9FE JUMPI PUSH2 0x1362 DUP2 PUSH2 0x1359 PUSH1 0x6 DUP6 ADD SLOAD PUSH2 0x1BD4 JUMP JUMPDEST PUSH1 0x6 DUP6 ADD PUSH2 0x1C25 JUMP JUMPDEST PUSH1 0x20 PUSH1 0x1F DUP3 GT PUSH1 0x1 EQ PUSH2 0x1656 JUMPI DUP2 SWAP3 SWAP4 SWAP5 PUSH1 0x0 SWAP3 PUSH2 0x164B JUMPI JUMPDEST POP POP DUP2 PUSH1 0x1 SHL SWAP2 PUSH1 0x0 NOT SWAP1 PUSH1 0x3 SHL SHR NOT AND OR PUSH1 0x6 DUP3 ADD SSTORE JUMPDEST PUSH2 0x100 PUSH1 0x7 DUP3 ADD PUSH1 0x80 MLOAD SWAP1 PUSH1 0x1 DUP1 PUSH1 0xA0 SHL SUB PUSH1 0xE0 DUP4 ADD MLOAD AND PUSH12 0xFFFFFFFFFFFFFFFFFFFFFFFF PUSH1 0xA0 SHL DUP3 SLOAD AND OR SWAP1 SSTORE ADD MLOAD SWAP2 DUP3 MLOAD PUSH1 0x1 PUSH1 0x1 PUSH1 0x40 SHL SUB DUP2 GT PUSH2 0x9FE JUMPI PUSH2 0x13EE DUP2 PUSH2 0x13E5 PUSH1 0x8 DUP7 ADD SLOAD PUSH2 0x1BD4 JUMP JUMPDEST PUSH1 0x8 DUP7 ADD PUSH2 0x1C25 JUMP JUMPDEST PUSH1 0x20 PUSH1 0x1F DUP3 GT PUSH1 0x1 EQ PUSH2 0x15DD JUMPI DUP2 SWAP3 SWAP4 SWAP5 PUSH1 0x0 SWAP3 PUSH2 0x15D2 JUMPI JUMPDEST POP POP DUP2 PUSH1 0x1 SHL SWAP2 PUSH1 0x0 NOT SWAP1 PUSH1 0x3 SHL SHR NOT AND OR PUSH1 0x8 DUP4 ADD SSTORE JUMPDEST PUSH2 0x120 PUSH1 0x80 MLOAD ADD MLOAD SWAP2 DUP3 MLOAD PUSH1 0x1 PUSH1 0x1 PUSH1 0x40 SHL SUB DUP2 GT PUSH2 0x9FE JUMPI PUSH2 0x1452 DUP2 PUSH2 0x1449 PUSH1 0x9 DUP6 ADD SLOAD PUSH2 0x1BD4 JUMP JUMPDEST PUSH1 0x9 DUP6 ADD PUSH2 0x1C25 JUMP JUMPDEST PUSH1 0x20 PUSH1 0x1F DUP3 GT PUSH1 0x1 EQ PUSH2 0x1564 JUMPI DUP2 SWAP3 SWAP4 SWAP5 PUSH1 0x0 SWAP3 PUSH2 0x1559 JUMPI JUMPDEST POP POP DUP2 PUSH1 0x1 SHL SWAP2 PUSH1 0x0 NOT SWAP1 PUSH1 0x3 SHL SHR NOT AND OR PUSH1 0x9 DUP3 ADD SSTORE JUMPDEST PUSH2 0x160 PUSH1 0xB PUSH1 0x80 MLOAD SWAP3 PUSH2 0x140 DUP5 ADD MLOAD PUSH1 0xA DUP3 ADD SSTORE ADD SWAP2 ADD MLOAD ISZERO ISZERO PUSH1 0xFF DUP1 NOT DUP4 SLOAD AND SWAP2 AND OR SWAP1 SSTORE PUSH1 0x3 SLOAD PUSH1 0x1 PUSH1 0x40 SHL DUP2 LT ISZERO PUSH2 0x9FE JUMPI PUSH1 0x1 DUP2 ADD DUP1 PUSH1 0x3 SSTORE DUP2 LT ISZERO PUSH2 0xA14 JUMPI DUP2 PUSH2 0x14FC SWAP2 PUSH1 0x3 PUSH1 0x0 MSTORE PUSH1 0xA0 MLOAD SWAP1 PUSH32 0xC2575A0E9E593C00F959F8C92F12DB2869C3395A3B0502D05E2516446F71F85B ADD PUSH2 0x1C84 JUMP JUMPDEST CALLER PUSH1 0x0 MSTORE PUSH1 0x2 PUSH1 0x20 MSTORE PUSH2 0x1516 DUP2 PUSH1 0xA0 MLOAD PUSH1 0x40 PUSH1 0x0 KECCAK256 PUSH2 0x1D47 JUMP JUMPDEST PUSH1 0x40 MLOAD DUP2 DUP2 SWAP3 PUSH1 0xA0 MLOAD DUP4 CALLDATACOPY DUP2 ADD PUSH1 0x0 DUP2 MSTORE SUB SWAP1 KECCAK256 PUSH1 0x40 MLOAD SWAP1 TIMESTAMP DUP3 MSTORE PUSH32 0x73D2FD8237105D32B68FF9C704037D5409605C2BE640B8B9A11387A4BA98387C PUSH1 0x20 CALLER SWAP4 LOG3 STOP JUMPDEST ADD MLOAD SWAP1 POP DUP5 DUP1 PUSH2 0x146B JUMP JUMPDEST PUSH1 0x9 DUP4 ADD PUSH1 0x0 MSTORE PUSH1 0x20 PUSH1 0x0 KECCAK256 SWAP1 PUSH1 0x0 JUMPDEST PUSH1 0x1F NOT DUP5 AND DUP2 LT PUSH2 0x15BA JUMPI POP PUSH1 0x1 SWAP4 SWAP5 SWAP6 DUP4 PUSH1 0x1F NOT DUP2 AND LT PUSH2 0x15A1 JUMPI JUMPDEST POP POP POP DUP2 SHL ADD PUSH1 0x9 DUP3 ADD SSTORE PUSH2 0x1483 JUMP JUMPDEST ADD MLOAD PUSH1 0x0 NOT PUSH1 0xF8 DUP5 PUSH1 0x3 SHL AND SHR NOT AND SWAP1 SSTORE DUP5 DUP1 DUP1 PUSH2 0x1591 JUMP JUMPDEST SWAP1 SWAP2 PUSH1 0x20 PUSH1 0x1 DUP2 SWAP3 DUP6 DUP11 ADD MLOAD DUP2 SSTORE ADD SWAP4 ADD SWAP2 ADD PUSH2 0x1574 JUMP JUMPDEST ADD MLOAD SWAP1 POP DUP5 DUP1 PUSH2 0x1407 JUMP JUMPDEST PUSH1 0x8 DUP5 ADD PUSH1 0x0 MSTORE PUSH1 0x20 PUSH1 0x0 KECCAK256 SWAP1 PUSH1 0x0 JUMPDEST PUSH1 0x1F NOT DUP5 AND DUP2 LT PUSH2 0x1633 JUMPI POP PUSH1 0x1 SWAP4 SWAP5 SWAP6 DUP4 PUSH1 0x1F NOT DUP2 AND LT PUSH2 0x161A JUMPI JUMPDEST POP POP POP DUP2 SHL ADD PUSH1 0x8 DUP4 ADD SSTORE PUSH2 0x141F JUMP JUMPDEST ADD MLOAD PUSH1 0x0 NOT PUSH1 0xF8 DUP5 PUSH1 0x3 SHL AND SHR NOT AND SWAP1 SSTORE DUP5 DUP1 DUP1 PUSH2 0x160A JUMP JUMPDEST SWAP1 SWAP2 PUSH1 0x20 PUSH1 0x1 DUP2 SWAP3 DUP6 DUP11 ADD MLOAD DUP2 SSTORE ADD SWAP4 ADD SWAP2 ADD PUSH2 0x15ED JUMP JUMPDEST ADD MLOAD SWAP1 POP DUP5 DUP1 PUSH2 0x137B JUMP JUMPDEST PUSH1 0x6 DUP4 ADD PUSH1 0x0 MSTORE PUSH1 0x20 PUSH1 0x0 KECCAK256 SWAP1 PUSH1 0x0 JUMPDEST PUSH1 0x1F NOT DUP5 AND DUP2 LT PUSH2 0x16AC JUMPI POP PUSH1 0x1 SWAP4 SWAP5 SWAP6 DUP4 PUSH1 0x1F NOT DUP2 AND LT PUSH2 0x1693 JUMPI JUMPDEST POP POP POP DUP2 SHL ADD PUSH1 0x6 DUP3 ADD SSTORE PUSH2 0x1393 JUMP JUMPDEST ADD MLOAD PUSH1 0x0 NOT PUSH1 0xF8 DUP5 PUSH1 0x3 SHL AND SHR NOT AND SWAP1 SSTORE DUP5 DUP1 DUP1 PUSH2 0x1683 JUMP JUMPDEST SWAP1 SWAP2 PUSH1 0x20 PUSH1 0x1 DUP2 SWAP3 DUP6 DUP11 ADD MLOAD DUP2 SSTORE ADD SWAP4 ADD SWAP2 ADD PUSH2 0x1666 JUMP JUMPDEST ADD MLOAD SWAP1 POP DUP5 DUP1 PUSH2 0x1318 JUMP JUMPDEST PUSH1 0x5 DUP5 ADD PUSH1 0x0 MSTORE PUSH1 0x20 PUSH1 0x0 KECCAK256 SWAP1 PUSH1 0x0 JUMPDEST PUSH1 0x1F NOT DUP5 AND DUP2 LT PUSH2 0x1725 JUMPI POP PUSH1 0x1 SWAP4 SWAP5 SWAP6 DUP4 PUSH1 0x1F NOT DUP2 AND LT PUSH2 0x170C JUMPI JUMPDEST POP POP POP DUP2 SHL ADD PUSH1 0x5 DUP4 ADD SSTORE PUSH2 0x1330 JUMP JUMPDEST ADD MLOAD PUSH1 0x0 NOT PUSH1 0xF8 DUP5 PUSH1 0x3 SHL AND SHR NOT AND SWAP1 SSTORE DUP5 DUP1 DUP1 PUSH2 0x16FC JUMP JUMPDEST SWAP1 SWAP2 PUSH1 0x20 PUSH1 0x1 DUP2 SWAP3 DUP6 DUP11 ADD MLOAD DUP2 SSTORE ADD SWAP4 ADD SWAP2 ADD PUSH2 0x16DF JUMP JUMPDEST ADD MLOAD SWAP1 POP DUP5 DUP1 PUSH2 0x12AB JUMP JUMPDEST PUSH1 0x3 DUP4 ADD PUSH1 0x0 MSTORE PUSH1 0x20 PUSH1 0x0 KECCAK256 SWAP1 PUSH1 0x0 JUMPDEST PUSH1 0x1F NOT DUP5 AND DUP2 LT PUSH2 0x179E JUMPI POP PUSH1 0x1 SWAP4 SWAP5 SWAP6 DUP4 PUSH1 0x1F NOT DUP2 AND LT PUSH2 0x1785 JUMPI JUMPDEST POP POP POP DUP2 SHL ADD PUSH1 0x3 DUP3 ADD SSTORE PUSH2 0x12C3 JUMP JUMPDEST ADD MLOAD PUSH1 0x0 NOT PUSH1 0xF8 DUP5 PUSH1 0x3 SHL AND SHR NOT AND SWAP1 SSTORE DUP5 DUP1 DUP1 PUSH2 0x1775 JUMP JUMPDEST SWAP1 SWAP2 PUSH1 0x20 PUSH1 0x1 DUP2 SWAP3 DUP6 DUP11 ADD MLOAD DUP2 SSTORE ADD SWAP4 ADD SWAP2 ADD PUSH2 0x1758 JUMP JUMPDEST ADD MLOAD SWAP1 POP DUP5 DUP1 PUSH2 0x1248 JUMP JUMPDEST PUSH1 0x2 DUP5 ADD PUSH1 0x0 MSTORE PUSH1 0x20 PUSH1 0x0 KECCAK256 SWAP1 PUSH1 0x0 JUMPDEST PUSH1 0x1F NOT DUP5 AND DUP2 LT PUSH2 0x1817 JUMPI POP PUSH1 0x1 SWAP4 SWAP5 SWAP6 DUP4 PUSH1 0x1F NOT DUP2 AND LT PUSH2 0x17FE JUMPI JUMPDEST POP POP POP DUP2 SHL ADD PUSH1 0x2 DUP4 ADD SSTORE PUSH2 0x1260 JUMP JUMPDEST ADD MLOAD PUSH1 0x0 NOT PUSH1 0xF8 DUP5 PUSH1 0x3 SHL AND SHR NOT AND SWAP1 SSTORE DUP5 DUP1 DUP1 PUSH2 0x17EE JUMP JUMPDEST SWAP1 SWAP2 PUSH1 0x20 PUSH1 0x1 DUP2 SWAP3 DUP6 DUP11 ADD MLOAD DUP2 SSTORE ADD SWAP4 ADD SWAP2 ADD PUSH2 0x17D1 JUMP JUMPDEST ADD MLOAD SWAP1 POP DUP5 DUP1 PUSH2 0x11E5 JUMP JUMPDEST PUSH1 0x1 DUP4 ADD PUSH1 0x0 MSTORE PUSH1 0x20 PUSH1 0x0 KECCAK256 SWAP1 PUSH1 0x0 JUMPDEST PUSH1 0x1F NOT DUP5 AND DUP2 LT PUSH2 0x1890 JUMPI POP PUSH1 0x1 SWAP4 SWAP5 SWAP6 DUP4 PUSH1 0x1F NOT DUP2 AND LT PUSH2 0x1877 JUMPI JUMPDEST POP POP POP DUP2 SHL ADD PUSH1 0x1 DUP3 ADD SSTORE PUSH2 0x11FD JUMP JUMPDEST ADD MLOAD PUSH1 0x0 NOT PUSH1 0xF8 DUP5 PUSH1 0x3 SHL AND SHR NOT AND SWAP1 SSTORE DUP5 DUP1 DUP1 PUSH2 0x1867 JUMP JUMPDEST SWAP1 SWAP2 PUSH1 0x20 PUSH1 0x1 DUP2 SWAP3 DUP6 DUP11 ADD MLOAD DUP2 SSTORE ADD SWAP4 ADD SWAP2 ADD PUSH2 0x184A JUMP JUMPDEST ADD MLOAD SWAP1 POP DUP5 DUP1 PUSH2 0x1185 JUMP JUMPDEST DUP4 PUSH1 0x0 MSTORE PUSH1 0x20 PUSH1 0x0 KECCAK256 SWAP1 PUSH1 0x0 JUMPDEST PUSH1 0x1F NOT DUP5 AND DUP2 LT PUSH2 0x1903 JUMPI POP PUSH1 0x1 SWAP4 SWAP5 SWAP6 DUP4 PUSH1 0x1F NOT DUP2 AND LT PUSH2 0x18EA JUMPI JUMPDEST POP POP POP DUP2 SHL ADD DUP3 SSTORE PUSH2 0x119A JUMP JUMPDEST ADD MLOAD PUSH1 0x0 NOT PUSH1 0xF8 DUP5 PUSH1 0x3 SHL AND SHR NOT AND SWAP1 SSTORE DUP5 DUP1 DUP1 PUSH2 0x18DD JUMP JUMPDEST SWAP1 SWAP2 PUSH1 0x20 PUSH1 0x1 DUP2 SWAP3 DUP6 DUP11 ADD MLOAD DUP2 SSTORE ADD SWAP4 ADD SWAP2 ADD PUSH2 0x18C0 JUMP JUMPDEST PUSH1 0x40 MLOAD PUSH3 0x461BCD PUSH1 0xE5 SHL DUP2 MSTORE PUSH1 0x20 PUSH1 0x4 DUP3 ADD MSTORE PUSH1 0x1A PUSH1 0x24 DUP3 ADD MSTORE PUSH32 0x4F776E6572206E616D652063616E6E6F7420626520656D707479000000000000 PUSH1 0x44 DUP3 ADD MSTORE PUSH1 0x64 SWAP1 REVERT JUMPDEST PUSH1 0x40 MLOAD PUSH3 0x461BCD PUSH1 0xE5 SHL DUP2 MSTORE PUSH1 0x20 PUSH1 0x4 DUP3 ADD MSTORE PUSH1 0x1B PUSH1 0x24 DUP3 ADD MSTORE PUSH32 0x41726561206D7573742062652067726561746572207468616E20300000000000 PUSH1 0x44 DUP3 ADD MSTORE PUSH1 0x64 SWAP1 REVERT JUMPDEST PUSH1 0x40 MLOAD PUSH3 0x461BCD PUSH1 0xE5 SHL DUP2 MSTORE PUSH1 0x20 PUSH1 0x4 DUP3 ADD MSTORE PUSH1 0x17 PUSH1 0x24 DUP3 ADD MSTORE PUSH32 0x416464726573732063616E6E6F7420626520656D707479000000000000000000 PUSH1 0x44 DUP3 ADD MSTORE PUSH1 0x64 SWAP1 REVERT JUMPDEST PUSH1 0x40 MLOAD PUSH3 0x461BCD PUSH1 0xE5 SHL DUP2 MSTORE PUSH1 0x20 PUSH1 0x4 DUP3 ADD MSTORE PUSH1 0x1B PUSH1 0x24 DUP3 ADD MSTORE PUSH32 0x50726F70657274792049442063616E6E6F7420626520656D7074790000000000 PUSH1 0x44 DUP3 ADD MSTORE PUSH1 0x64 SWAP1 REVERT JUMPDEST PUSH1 0x40 MLOAD PUSH3 0x461BCD PUSH1 0xE5 SHL DUP2 MSTORE PUSH1 0x20 PUSH1 0x4 DUP3 ADD MSTORE PUSH1 0x1B PUSH1 0x24 DUP3 ADD MSTORE PUSH32 0x50726F706572747920616C726561647920726567697374657265640000000000 PUSH1 0x44 DUP3 ADD MSTORE PUSH1 0x64 SWAP1 REVERT JUMPDEST CALLVALUE PUSH2 0x1D4 JUMPI PUSH1 0x20 CALLDATASIZE PUSH1 0x3 NOT ADD SLT PUSH2 0x1D4 JUMPI PUSH1 0x4 CALLDATALOAD SWAP1 PUSH1 0x1 PUSH1 0x1 PUSH1 0x40 SHL SUB DUP3 GT PUSH2 0x1D4 JUMPI PUSH1 0xB DUP2 PUSH1 0x20 PUSH1 0xFF SWAP4 PUSH2 0x1AAE DUP3 SWAP7 CALLDATASIZE SWAP1 PUSH1 0x4 ADD PUSH2 0x1AC9 JUMP JUMPDEST DUP1 SWAP2 DUP4 CALLDATACOPY DUP2 ADD PUSH1 0x0 DUP2 MSTORE SUB ADD SWAP1 KECCAK256 ADD SLOAD AND PUSH1 0x40 MLOAD SWAP1 ISZERO ISZERO DUP2 MSTORE RETURN JUMPDEST SWAP2 DUP2 PUSH1 0x1F DUP5 ADD SLT ISZERO PUSH2 0x1D4 JUMPI DUP3 CALLDATALOAD SWAP2 PUSH1 0x1 PUSH1 0x1 PUSH1 0x40 SHL SUB DUP4 GT PUSH2 0x1D4 JUMPI PUSH1 0x20 DUP4 DUP2 DUP7 ADD SWAP6 ADD ADD GT PUSH2 0x1D4 JUMPI JUMP JUMPDEST SWAP2 SWAP1 DUP3 MLOAD SWAP3 DUP4 DUP3 MSTORE PUSH1 0x0 JUMPDEST DUP5 DUP2 LT PUSH2 0x1B22 JUMPI POP POP DUP3 PUSH1 0x0 PUSH1 0x20 DUP1 SWAP5 SWAP6 DUP5 ADD ADD MSTORE PUSH1 0x1F DUP1 NOT SWAP2 ADD AND ADD ADD SWAP1 JUMP JUMPDEST PUSH1 0x20 DUP2 DUP4 ADD DUP2 ADD MLOAD DUP5 DUP4 ADD DUP3 ADD MSTORE ADD PUSH2 0x1B01 JUMP JUMPDEST PUSH2 0x180 DUP2 ADD SWAP1 DUP2 LT PUSH1 0x1 PUSH1 0x1 PUSH1 0x40 SHL SUB DUP3 GT OR PUSH2 0x9FE JUMPI PUSH1 0x40 MSTORE JUMP JUMPDEST PUSH1 0x80 DUP2 ADD SWAP1 DUP2 LT PUSH1 0x1 PUSH1 0x1 PUSH1 0x40 SHL SUB DUP3 GT OR PUSH2 0x9FE JUMPI PUSH1 0x40 MSTORE JUMP JUMPDEST SWAP1 PUSH1 0x1F DUP1 NOT SWAP2 ADD AND DUP2 ADD SWAP1 DUP2 LT PUSH1 0x1 PUSH1 0x1 PUSH1 0x40 SHL SUB DUP3 GT OR PUSH2 0x9FE JUMPI PUSH1 0x40 MSTORE JUMP JUMPDEST SWAP3 SWAP2 SWAP3 PUSH1 0x1 PUSH1 0x1 PUSH1 0x40 SHL SUB DUP3 GT PUSH2 0x9FE JUMPI PUSH1 0x40 MLOAD SWAP2 PUSH2 0x1BB7 PUSH1 0x1F DUP3 ADD PUSH1 0x1F NOT AND PUSH1 0x20 ADD DUP5 PUSH2 0x1B6D JUMP JUMPDEST DUP3 SWAP5 DUP2 DUP5 MSTORE DUP2 DUP4 ADD GT PUSH2 0x1D4 JUMPI DUP3 DUP2 PUSH1 0x20 SWAP4 DUP5 PUSH1 0x0 SWAP7 ADD CALLDATACOPY ADD ADD MSTORE JUMP JUMPDEST SWAP1 PUSH1 0x1 DUP3 DUP2 SHR SWAP3 AND DUP1 ISZERO PUSH2 0x1C04 JUMPI JUMPDEST PUSH1 0x20 DUP4 LT EQ PUSH2 0x1BEE JUMPI JUMP JUMPDEST PUSH4 0x4E487B71 PUSH1 0xE0 SHL PUSH1 0x0 MSTORE PUSH1 0x22 PUSH1 0x4 MSTORE PUSH1 0x24 PUSH1 0x0 REVERT JUMPDEST SWAP2 PUSH1 0x7F AND SWAP2 PUSH2 0x1BE3 JUMP JUMPDEST DUP2 DUP2 LT PUSH2 0x1C19 JUMPI POP POP JUMP JUMPDEST PUSH1 0x0 DUP2 SSTORE PUSH1 0x1 ADD PUSH2 0x1C0E JUMP JUMPDEST SWAP2 SWAP1 PUSH1 0x1F DUP2 GT PUSH2 0x1C34 JUMPI POP POP POP JUMP JUMPDEST PUSH2 0x1C60 SWAP3 PUSH1 0x0 MSTORE PUSH1 0x20 PUSH1 0x0 KECCAK256 SWAP1 PUSH1 0x20 PUSH1 0x1F DUP5 ADD PUSH1 0x5 SHR DUP4 ADD SWAP4 LT PUSH2 0x1C62 JUMPI JUMPDEST PUSH1 0x1F ADD PUSH1 0x5 SHR ADD SWAP1 PUSH2 0x1C0E JUMP JUMPDEST JUMP JUMPDEST SWAP1 SWAP2 POP DUP2 SWAP1 PUSH2 0x1C53 JUMP JUMPDEST DUP1 SLOAD DUP3 LT ISZERO PUSH2 0xA14 JUMPI PUSH1 0x0 MSTORE PUSH1 0x20 PUSH1 0x0 KECCAK256 ADD SWAP1 PUSH1 0x0 SWAP1 JUMP JUMPDEST SWAP1 SWAP3 SWAP2 PUSH1 0x1 PUSH1 0x1 PUSH1 0x40 SHL SUB DUP2 GT PUSH2 0x9FE JUMPI PUSH2 0x1CA9 DUP2 PUSH2 0x1CA3 DUP5 SLOAD PUSH2 0x1BD4 JUMP JUMPDEST DUP5 PUSH2 0x1C25 JUMP JUMPDEST PUSH1 0x0 PUSH1 0x1F DUP3 GT PUSH1 0x1 EQ PUSH2 0x1CE3 JUMPI DUP2 SWAP3 SWAP4 SWAP5 PUSH1 0x0 SWAP3 PUSH2 0x1CD8 JUMPI JUMPDEST POP POP DUP2 PUSH1 0x1 SHL SWAP2 PUSH1 0x0 NOT SWAP1 PUSH1 0x3 SHL SHR NOT AND OR SWAP1 SSTORE JUMP JUMPDEST ADD CALLDATALOAD SWAP1 POP CODESIZE DUP1 PUSH2 0x1CC2 JUMP JUMPDEST PUSH1 0x1F NOT DUP3 AND SWAP5 DUP4 DUP3 MSTORE PUSH1 0x20 SWAP2 DUP3 DUP2 KECCAK256 SWAP3 DUP2 SWAP1 JUMPDEST DUP9 DUP3 LT PUSH2 0x1D2F JUMPI POP POP DUP4 PUSH1 0x1 SWAP6 SWAP7 SWAP8 LT PUSH2 0x1D15 JUMPI JUMPDEST POP POP POP DUP2 SHL ADD SWAP1 SSTORE JUMP JUMPDEST ADD CALLDATALOAD PUSH1 0x0 NOT PUSH1 0x3 DUP5 SWAP1 SHL PUSH1 0xF8 AND SHR NOT AND SWAP1 SSTORE CODESIZE DUP1 DUP1 PUSH2 0x1D0B JUMP JUMPDEST DUP1 PUSH1 0x1 DUP5 SWAP7 DUP3 SWAP5 SWAP6 DUP8 ADD CALLDATALOAD DUP2 SSTORE ADD SWAP6 ADD SWAP3 ADD SWAP1 PUSH2 0x1CF6 JUMP JUMPDEST SWAP2 SWAP1 SWAP2 DUP1 SLOAD PUSH1 0x1 PUSH1 0x40 SHL DUP2 LT ISZERO PUSH2 0x9FE JUMPI PUSH2 0x1D67 SWAP2 PUSH1 0x1 DUP3 ADD DUP2 SSTORE PUSH2 0x1C6C JUMP JUMPDEST SWAP3 SWAP1 SWAP3 PUSH2 0x91E JUMPI PUSH2 0x1C60 SWAP3 PUSH2 0x1C84 JUMP JUMPDEST ISZERO PUSH2 0x1D7E JUMPI JUMP JUMPDEST PUSH1 0x40 MLOAD PUSH3 0x461BCD PUSH1 0xE5 SHL DUP2 MSTORE PUSH1 0x20 PUSH1 0x4 DUP3 ADD MSTORE PUSH1 0x17 PUSH1 0x24 DUP3 ADD MSTORE PUSH32 0x50726F706572747920646F6573206E6F74206578697374000000000000000000 PUSH1 0x44 DUP3 ADD MSTORE PUSH1 0x64 SWAP1 REVERT JUMPDEST ISZERO PUSH2 0x1DCA JUMPI JUMP JUMPDEST PUSH1 0x40 MLOAD PUSH3 0x461BCD PUSH1 0xE5 SHL DUP2 MSTORE PUSH1 0x20 PUSH1 0x4 DUP3 ADD MSTORE PUSH1 0x2B PUSH1 0x24 DUP3 ADD MSTORE PUSH32 0x4F6E6C792070726F7065727479206F776E65722063616E20706572666F726D20 PUSH1 0x44 DUP3 ADD MSTORE PUSH11 0x3A3434B99030B1BA34B7B7 PUSH1 0xA9 SHL PUSH1 0x64 DUP3 ADD MSTORE PUSH1 0x84 SWAP1 REVERT JUMPDEST SWAP1 PUSH1 0x0 SWAP3 SWAP2 DUP1 SLOAD SWAP2 PUSH2 0x1E34 DUP4 PUSH2 0x1BD4 JUMP JUMPDEST SWAP2 DUP3 DUP3 MSTORE PUSH1 0x1 SWAP4 DUP5 DUP2 AND SWAP1 DUP2 PUSH1 0x0 EQ PUSH2 0x1E96 JUMPI POP PUSH1 0x1 EQ PUSH2 0x1E56 JUMPI JUMPDEST POP POP POP POP JUMP JUMPDEST SWAP1 SWAP2 SWAP4 SWAP5 POP PUSH1 0x0 MSTORE PUSH1 0x20 SWAP3 DUP4 PUSH1 0x0 KECCAK256 SWAP3 DUP5 PUSH1 0x0 SWAP5 JUMPDEST DUP4 DUP7 LT PUSH2 0x1E82 JUMPI POP POP POP POP ADD ADD SWAP1 CODESIZE DUP1 DUP1 DUP1 PUSH2 0x1E50 JUMP JUMPDEST DUP1 SLOAD DUP6 DUP8 ADD DUP4 ADD MSTORE SWAP5 ADD SWAP4 DUP6 SWAP1 DUP3 ADD PUSH2 0x1E6B JUMP JUMPDEST SWAP3 SWAP5 POP POP POP PUSH1 0x20 SWAP4 SWAP5 POP PUSH1 0xFF NOT AND DUP4 DUP4 ADD MSTORE ISZERO ISZERO PUSH1 0x5 SHL ADD ADD SWAP1 CODESIZE DUP1 DUP1 DUP1 PUSH2 0x1E50 JUMP JUMPDEST PUSH1 0x1 PUSH1 0x1 PUSH1 0x40 SHL SUB DUP2 GT PUSH2 0x9FE JUMPI PUSH1 0x5 SHL PUSH1 0x20 ADD SWAP1 JUMP JUMPDEST SWAP1 DUP1 DUP3 EQ PUSH2 0x1FA8 JUMPI PUSH2 0x1EE2 DUP2 SLOAD PUSH2 0x1BD4 JUMP JUMPDEST SWAP1 PUSH1 0x1 PUSH1 0x1 PUSH1 0x40 SHL SUB DUP3 GT PUSH2 0x9FE JUMPI DUP2 SWAP1 PUSH2 0x1F07 DUP3 PUSH2 0x1F01 DUP7 SLOAD PUSH2 0x1BD4 JUMP JUMPDEST DUP7 PUSH2 0x1C25 JUMP JUMPDEST PUSH1 0x0 SWAP1 PUSH1 0x1F DUP4 GT PUSH1 0x1 EQ PUSH2 0x1F3D JUMPI PUSH1 0x0 SWAP3 PUSH2 0x1F32 JUMPI POP POP DUP2 PUSH1 0x1 SHL SWAP2 PUSH1 0x0 NOT SWAP1 PUSH1 0x3 SHL SHR NOT AND OR SWAP1 SSTORE JUMP JUMPDEST ADD SLOAD SWAP1 POP CODESIZE DUP1 PUSH2 0x1CC2 JUMP JUMPDEST DUP2 MSTORE PUSH1 0x20 DUP1 DUP3 KECCAK256 DUP6 DUP4 MSTORE DUP2 DUP4 KECCAK256 SWAP4 POP SWAP1 PUSH1 0x1F NOT DUP6 AND SWAP1 DUP4 SWAP1 JUMPDEST DUP3 DUP3 LT PUSH2 0x1F8F JUMPI POP POP SWAP1 DUP5 PUSH1 0x1 SWAP6 SWAP5 SWAP4 SWAP3 LT PUSH2 0x1F76 JUMPI POP POP POP DUP2 SHL ADD SWAP1 SSTORE JUMP JUMPDEST ADD SLOAD PUSH1 0x0 NOT PUSH1 0xF8 DUP5 PUSH1 0x3 SHL AND SHR NOT AND SWAP1 SSTORE CODESIZE DUP1 DUP1 PUSH2 0x1D0B JUMP JUMPDEST DUP5 SWAP6 DUP2 SWAP3 SWAP6 DUP6 ADD SLOAD DUP2 SSTORE PUSH1 0x1 DUP1 SWAP2 ADD SWAP7 ADD SWAP5 ADD SWAP1 PUSH2 0x1F56 JUMP JUMPDEST POP POP JUMP INVALID LOG2 PUSH5 0x6970667358 0x22 SLT KECCAK256 0xA7 0xD MLOAD MSTORE8 SWAP9 PUSH2 0xCEE3 LOG0 0x5E 0xE5 MSTORE8 JUMPDEST 0xF7 GT PUSH18 0x207326F7B6A88DBE7E100DED7A9064806473 PUSH16 0x6C634300081400330000000000000000 "},"methodIdentifiers":{"getPropertiesByOwner(address)":"9fcb2748","getProperty(string)":"ab331a34","getPropertyCount()":"7326b901","getPropertyIdByIndex(uint256)":"4917500d","getTransferHistory(string)":"7b2cca7c","isPropertyRegistered(string)":"26a766e4","registerProperty(string,string,string,string,uint256,string,string,string,string)":"3e48ab8b","transferProperty(string,address,string)":"80560fdb","updatePropertyDetails(string,string,string)":"bceb2718","verifyProperty(string)":"54f2b93f"}}}}}