{
  "_format": "hh-sol-artifact-1",
  "contractName": "LandRegistry",
  "sourceName": "contracts/LandRegistry.sol",
  "abi": [
    {
      "anonymous": false,
      "inputs": [
        {
          "indexed": true,
          "internalType": "string",
          "name": "propertyId",
          "type": "string"
        },
        {
          "indexed": true,
          "internalType": "address",
          "name": "owner",
          "type": "address"
        },
        {
          "indexed": false,
          "internalType": "uint256",
          "name": "registrationDate",
          "type": "uint256"
        }
      ],
      "name": "PropertyRegistered",
      "type": "event"
    },
    {
      "anonymous": false,
      "inputs": [
        {
          "indexed": true,
          "internalType": "string",
          "name": "propertyId",
          "type": "string"
        },
        {
          "indexed": true,
          "internalType": "address",
          "name": "from",
          "type": "address"
        },
        {
          "indexed": true,
          "internalType": "address",
          "name": "to",
          "type": "address"
        },
        {
          "indexed": false,
          "internalType": "uint256",
          "name": "transferDate",
          "type": "uint256"
        }
      ],
      "name": "PropertyTransferred",
      "type": "event"
    },
    {
      "anonymous": false,
      "inputs": [
        {
          "indexed": true,
          "internalType": "string",
          "name": "propertyId",
          "type": "string"
        },
        {
          "indexed": true,
          "internalType": "address",
          "name": "owner",
          "type": "address"
        },
        {
          "indexed": false,
          "internalType": "uint256",
          "name": "updateDate",
          "type": "uint256"
        }
      ],
      "name": "PropertyUpdated",
      "type": "event"
    },
    {
      "inputs": [
        {
          "internalType": "address",
          "name": "_owner",
          "type": "address"
        }
      ],
      "name": "getPropertiesByOwner",
      "outputs": [
        {
          "internalType": "string[]",
          "name": "",
          "type": "string[]"
        }
      ],
      "stateMutability": "view",
      "type": "function"
    },
    {
      "inputs": [
        {
          "internalType": "string",
          "name": "_propertyId",
          "type": "string"
        }
      ],
      "name": "getProperty",
      "outputs": [
        {
          "internalType": "string",
          "name": "propertyId",
          "type": "string"
        },
        {
          "internalType": "string",
          "name": "propertyAddress",
          "type": "string"
        },
        {
          "internalType": "string",
          "name": "city",
          "type": "string"
        },
        {
          "internalType": "string",
          "name": "postalCode",
          "type": "string"
        },
        {
          "internalType": "uint256",
          "name": "area",
          "type": "uint256"
        },
        {
          "internalType": "string",
          "name": "latitude",
          "type": "string"
        },
        {
          "internalType": "string",
          "name": "longitude",
          "type": "string"
        },
        {
          "internalType": "address",
          "name": "owner",
          "type": "address"
        },
        {
          "internalType": "string",
          "name": "ownerName",
          "type": "string"
        },
        {
          "internalType": "string",
          "name": "documentHash",
          "type": "string"
        },
        {
          "internalType": "uint256",
          "name": "registrationDate",
          "type": "uint256"
        },
        {
          "internalType": "bool",
          "name": "isRegistered",
          "type": "bool"
        }
      ],
      "stateMutability": "view",
      "type": "function"
    },
    {
      "inputs": [],
      "name": "getPropertyCount",
      "outputs": [
        {
          "internalType": "uint256",
          "name": "",
          "type": "uint256"
        }
      ],
      "stateMutability": "view",
      "type": "function"
    },
    {
      "inputs": [
        {
          "internalType": "uint256",
          "name": "_index",
          "type": "uint256"
        }
      ],
      "name": "getPropertyIdByIndex",
      "outputs": [
        {
          "internalType": "string",
          "name": "",
          "type": "string"
        }
      ],
      "stateMutability": "view",
      "type": "function"
    },
    {
      "inputs": [
        {
          "internalType": "string",
          "name": "_propertyId",
          "type": "string"
        }
      ],
      "name": "getTransferHistory",
      "outputs": [
        {
          "components": [
            {
              "internalType": "address",
              "name": "from",
              "type": "address"
            },
            {
              "internalType": "address",
              "name": "to",
              "type": "address"
            },
            {
              "internalType": "string",
              "name": "newOwnerName",
              "type": "string"
            },
            {
              "internalType": "uint256",
              "name": "transferDate",
              "type": "uint256"
            }
          ],
          "internalType": "struct LandRegistry.Transfer[]",
          "name": "",
          "type": "tuple[]"
        }
      ],
      "stateMutability": "view",
      "type": "function"
    },
    {
      "inputs": [
        {
          "internalType": "string",
          "name": "_propertyId",
          "type": "string"
        }
      ],
      "name": "isPropertyRegistered",
      "outputs": [
        {
          "internalType": "bool",
          "name": "",
          "type": "bool"
        }
      ],
      "stateMutability": "view",
      "type": "function"
    },
    {
      "inputs": [
        {
          "internalType": "string",
          "name": "_propertyId",
          "type": "string"
        },
        {
          "internalType": "string",
          "name": "_address",
          "type": "string"
        },
        {
          "internalType": "string",
          "name": "_city",
          "type": "string"
        },
        {
          "internalType": "string",
          "name": "_postalCode",
          "type": "string"
        },
        {
          "internalType": "uint256",
          "name": "_area",
          "type": "uint256"
        },
        {
          "internalType": "string",
          "name": "_latitude",
          "type": "string"
        },
        {
          "internalType": "string",
          "name": "_longitude",
          "type": "string"
        },
        {
          "internalType": "string",
          "name": "_ownerName",
          "type": "string"
        },
        {
          "internalType": "string",
          "name": "_documentHash",
          "type": "string"
        }
      ],
      "name": "registerProperty",
      "outputs": [],
      "stateMutability": "nonpayable",
      "type": "function"
    },
    {
      "inputs": [
        {
          "internalType": "string",
          "name": "_propertyId",
          "type": "string"
        },
        {
          "internalType": "address",
          "name": "_newOwner",
          "type": "address"
        },
        {
          "internalType": "string",
          "name": "_newOwnerName",
          "type": "string"
        }
      ],
      "name": "transferProperty",
      "outputs": [],
      "stateMutability": "nonpayable",
      "type": "function"
    },
    {
      "inputs": [
        {
          "internalType": "string",
          "name": "_propertyId",
          "type": "string"
        },
        {
          "internalType": "string",
          "name": "_address",
          "type": "string"
        },
        {
          "internalType": "string",
          "name": "_documentHash",
          "type": "string"
        }
      ],
      "name": "updatePropertyDetails",
      "outputs": [],
      "stateMutability": "nonpayable",
      "type": "function"
    },
    {
      "inputs": [
        {
          "internalType": "string",
          "name": "_propertyId",
          "type": "string"
        }
      ],
      "name": "verifyProperty",
      "outputs": [
        {
          "internalType": "bool",
          "name": "isRegistered",
          "type": "bool"
        },
        {
          "internalType": "address",
          "name": "owner",
          "type": "address"
        },
        {
          "internalType": "string",
          "name": "ownerName",
          "type": "string"
        },
        {
          "internalType": "uint256",
          "name": "registrationDate",
          "type": "uint256"
        },
        {
          "internalType": "string",
          "name": "propertyAddress",
          "type": "string"
        }
      ],
      "stateMutability": "view",
      "type": "function"
    }
  ],
  "bytecode": "0x608060405234801561001057600080fd5b50612397806100206000396000f3fe608060405234801561001057600080fd5b506004361061009e5760003560e01c80637b2cca7c116100665780637b2cca7c1461013557806380560fdb146101555780639fcb274814610168578063ab331a3414610188578063bceb2718146101b357600080fd5b806326a766e4146100a35780633e48ab8b146100cb5780634917500d146100e057806354f2b93f146101005780637326b90114610124575b600080fd5b6100b66100b1366004611a7f565b6101c6565b60405190151581526020015b60405180910390f35b6100de6100d9366004611abc565b6101f3565b005b6100f36100ee366004611c06565b6105e9565b6040516100c29190611c6f565b61011361010e366004611a7f565b6106e0565b6040516100c2959493929190611c89565b6003546040519081526020016100c2565b610148610143366004611a7f565b610c13565b6040516100c29190611cd9565b6100de610163366004611d8f565b610d94565b61017b610176366004611e03565b6110df565b6040516100c29190611e1e565b61019b610196366004611a7f565b6111ce565b6040516100c29c9b9a99989796959493929190611e80565b6100de6101c1366004611f60565b61174c565b600080826040516101d79190611fbb565b908152604051908190036020019020600b015460ff1692915050565b886000816040516102049190611fbb565b908152604051908190036020019020600b015460ff161561026c5760405162461bcd60e51b815260206004820152601b60248201527f50726f706572747920616c72656164792072656769737465726564000000000060448201526064015b60405180910390fd5b60008a51116102bd5760405162461bcd60e51b815260206004820152601b60248201527f50726f70657274792049442063616e6e6f7420626520656d70747900000000006044820152606401610263565b600089511161030e5760405162461bcd60e51b815260206004820152601760248201527f416464726573732063616e6e6f7420626520656d7074790000000000000000006044820152606401610263565b6000861161035e5760405162461bcd60e51b815260206004820152601b60248201527f41726561206d7573742062652067726561746572207468616e203000000000006044820152606401610263565b60008351116103af5760405162461bcd60e51b815260206004820152601a60248201527f4f776e6572206e616d652063616e6e6f7420626520656d7074790000000000006044820152606401610263565b60006040518061018001604052808c81526020018b81526020018a8152602001898152602001888152602001878152602001868152602001336001600160a01b031681526020018581526020018481526020014281526020016001151581525090508060008c6040516104229190611fbb565b9081526040519081900360200190208151819061043f908261205a565b5060208201516001820190610454908261205a565b5060408201516002820190610469908261205a565b506060820151600382019061047e908261205a565b506080820151600482015560a0820151600582019061049d908261205a565b5060c082015160068201906104b2908261205a565b5060e08201516007820180546001600160a01b0319166001600160a01b0390921691909117905561010082015160088201906104ee908261205a565b506101208201516009820190610504908261205a565b50610140820151600a82015561016090910151600b909101805460ff1916911515919091179055600380546001810182556000919091527fc2575a0e9e593c00f959f8c92f12db2869c3395a3b0502d05e2516446f71f85b016105678c8261205a565b50336000908152600260209081526040822080546001810182559083529120016105918c8261205a565b5060405133906105a2908d90611fbb565b604051908190038120428252907f73d2fd8237105d32b68ff9c704037d5409605c2be640b8b9a11387a4ba98387c9060200160405180910390a35050505050505050505050565b60035460609082106106335760405162461bcd60e51b8152602060048201526013602482015272496e646578206f7574206f6620626f756e647360681b6044820152606401610263565b600382815481106106465761064661211a565b90600052602060002001805461065b90611fd7565b80601f016020809104026020016040519081016040528092919081815260200182805461068790611fd7565b80156106d45780601f106106a9576101008083540402835291602001916106d4565b820191906000526020600020905b8154815290600101906020018083116106b757829003601f168201915b50505050509050919050565b600080606060006060600080876040516106fa9190611fbb565b90815260200160405180910390206040518061018001604052908160008201805461072490611fd7565b80601f016020809104026020016040519081016040528092919081815260200182805461075090611fd7565b801561079d5780601f106107725761010080835404028352916020019161079d565b820191906000526020600020905b81548152906001019060200180831161078057829003601f168201915b505050505081526020016001820180546107b690611fd7565b80601f01602080910402602001604051908101604052809291908181526020018280546107e290611fd7565b801561082f5780601f106108045761010080835404028352916020019161082f565b820191906000526020600020905b81548152906001019060200180831161081257829003601f168201915b5050505050815260200160028201805461084890611fd7565b80601f016020809104026020016040519081016040528092919081815260200182805461087490611fd7565b80156108c15780601f10610896576101008083540402835291602001916108c1565b820191906000526020600020905b8154815290600101906020018083116108a457829003601f168201915b505050505081526020016003820180546108da90611fd7565b80601f016020809104026020016040519081016040528092919081815260200182805461090690611fd7565b80156109535780601f1061092857610100808354040283529160200191610953565b820191906000526020600020905b81548152906001019060200180831161093657829003601f168201915b505050505081526020016004820154815260200160058201805461097690611fd7565b80601f01602080910402602001604051908101604052809291908181526020018280546109a290611fd7565b80156109ef5780601f106109c4576101008083540402835291602001916109ef565b820191906000526020600020905b8154815290600101906020018083116109d257829003601f168201915b50505050508152602001600682018054610a0890611fd7565b80601f0160208091040260200160405190810160405280929190818152602001828054610a3490611fd7565b8015610a815780601f10610a5657610100808354040283529160200191610a81565b820191906000526020600020905b815481529060010190602001808311610a6457829003601f168201915b505050918352505060078201546001600160a01b03166020820152600882018054604090920191610ab190611fd7565b80601f0160208091040260200160405190810160405280929190818152602001828054610add90611fd7565b8015610b2a5780601f10610aff57610100808354040283529160200191610b2a565b820191906000526020600020905b815481529060010190602001808311610b0d57829003601f168201915b50505050508152602001600982018054610b4390611fd7565b80601f0160208091040260200160405190810160405280929190818152602001828054610b6f90611fd7565b8015610bbc5780601f10610b9157610100808354040283529160200191610bbc565b820191906000526020600020905b815481529060010190602001808311610b9f57829003601f168201915b5050509183525050600a820154602080830191909152600b9092015460ff16151560409091015261016082015160e08301516101008401516101408501519490930151919b909a5091985091965090945092505050565b606081600081604051610c269190611fbb565b908152604051908190036020019020600b015460ff16610c585760405162461bcd60e51b815260040161026390612130565b600183604051610c689190611fbb565b9081526020016040518091039020805480602002602001604051908101604052809291908181526020016000905b82821015610d87576000848152602090819020604080516080810182526004860290920180546001600160a01b0390811684526001820154169383019390935260028301805492939291840191610cec90611fd7565b80601f0160208091040260200160405190810160405280929190818152602001828054610d1890611fd7565b8015610d655780601f10610d3a57610100808354040283529160200191610d65565b820191906000526020600020905b815481529060010190602001808311610d4857829003601f168201915b5050505050815260200160038201548152505081526020019060010190610c96565b5050505091505b50919050565b82600081604051610da59190611fbb565b908152604051908190036020019020600b015460ff16610dd75760405162461bcd60e51b815260040161026390612130565b83336001600160a01b0316600082604051610df29190611fbb565b908152604051908190036020019020600701546001600160a01b031614610e2b5760405162461bcd60e51b815260040161026390612167565b6001600160a01b038416610e815760405162461bcd60e51b815260206004820152601960248201527f496e76616c6964206e6577206f776e65722061646472657373000000000000006044820152606401610263565b336001600160a01b03851603610ed95760405162461bcd60e51b815260206004820152601b60248201527f43616e6e6f74207472616e7366657220746f20796f757273656c6600000000006044820152606401610263565b6000835111610f2a5760405162461bcd60e51b815260206004820152601e60248201527f4e6577206f776e6572206e616d652063616e6e6f7420626520656d70747900006044820152606401610263565b60008086604051610f3b9190611fbb565b908152604080516020928190038301812060078101546080830184526001600160a01b03908116808452908a1694830194909452818301889052426060830152915191935090600190610f8f908a90611fbb565b9081526040805160209281900383019020805460018082018355600092835291849020855160049092020180546001600160a01b03199081166001600160a01b0393841617825594860151928101805490951692909116919091179092558201518291906002820190611002908261205a565b50606091909101516003909101556007830180546001600160a01b0319166001600160a01b0389161790556008830161103b878261205a565b506001600160a01b03871660009081526002602090815260408220805460018101825590835291200161106e898261205a565b506110798289611887565b866001600160a01b0316826001600160a01b03168960405161109b9190611fbb565b604051908190038120428252907ff941a1ca8d1a22529c1133827aaac1a11678210c5aed825de4ee86c1c387281c9060200160405180910390a45050505050505050565b6001600160a01b0381166000908152600260209081526040808320805482518185028101850190935280835260609492939192909184015b828210156111c357838290600052602060002001805461113690611fd7565b80601f016020809104026020016040519081016040528092919081815260200182805461116290611fd7565b80156111af5780601f10611184576101008083540402835291602001916111af565b820191906000526020600020905b81548152906001019060200180831161119257829003601f168201915b505050505081526020019060010190611117565b505050509050919050565b606080606080600060608060006060806000806000808e6040516111f29190611fbb565b90815260200160405180910390206040518061018001604052908160008201805461121c90611fd7565b80601f016020809104026020016040519081016040528092919081815260200182805461124890611fd7565b80156112955780601f1061126a57610100808354040283529160200191611295565b820191906000526020600020905b81548152906001019060200180831161127857829003601f168201915b505050505081526020016001820180546112ae90611fd7565b80601f01602080910402602001604051908101604052809291908181526020018280546112da90611fd7565b80156113275780601f106112fc57610100808354040283529160200191611327565b820191906000526020600020905b81548152906001019060200180831161130a57829003601f168201915b5050505050815260200160028201805461134090611fd7565b80601f016020809104026020016040519081016040528092919081815260200182805461136c90611fd7565b80156113b95780601f1061138e576101008083540402835291602001916113b9565b820191906000526020600020905b81548152906001019060200180831161139c57829003601f168201915b505050505081526020016003820180546113d290611fd7565b80601f01602080910402602001604051908101604052809291908181526020018280546113fe90611fd7565b801561144b5780601f106114205761010080835404028352916020019161144b565b820191906000526020600020905b81548152906001019060200180831161142e57829003601f168201915b505050505081526020016004820154815260200160058201805461146e90611fd7565b80601f016020809104026020016040519081016040528092919081815260200182805461149a90611fd7565b80156114e75780601f106114bc576101008083540402835291602001916114e7565b820191906000526020600020905b8154815290600101906020018083116114ca57829003601f168201915b5050505050815260200160068201805461150090611fd7565b80601f016020809104026020016040519081016040528092919081815260200182805461152c90611fd7565b80156115795780601f1061154e57610100808354040283529160200191611579565b820191906000526020600020905b81548152906001019060200180831161155c57829003601f168201915b505050918352505060078201546001600160a01b031660208201526008820180546040909201916115a990611fd7565b80601f01602080910402602001604051908101604052809291908181526020018280546115d590611fd7565b80156116225780601f106115f757610100808354040283529160200191611622565b820191906000526020600020905b81548152906001019060200180831161160557829003601f168201915b5050505050815260200160098201805461163b90611fd7565b80601f016020809104026020016040519081016040528092919081815260200182805461166790611fd7565b80156116b45780601f10611689576101008083540402835291602001916116b4565b820191906000526020600020905b81548152906001019060200180831161169757829003601f168201915b50505050508152602001600a8201548152602001600b820160009054906101000a900460ff1615151515815250509050806000015181602001518260400151836060015184608001518560a001518660c001518760e001518861010001518961012001518a61014001518b61016001519c509c509c509c509c509c509c509c509c509c509c509c505091939597999b5091939597999b565b8260008160405161175d9190611fbb565b908152604051908190036020019020600b015460ff1661178f5760405162461bcd60e51b815260040161026390612130565b83336001600160a01b03166000826040516117aa9190611fbb565b908152604051908190036020019020600701546001600160a01b0316146117e35760405162461bcd60e51b815260040161026390612167565b600080866040516117f49190611fbb565b9081526020016040518091039020905060008551111561181e576001810161181c868261205a565b505b8351156118355760098101611833858261205a565b505b6040513390611845908890611fbb565b604051908190038120428252907fc70bba537c3d144ac337218f2d12052585714d7a9a41f625b698222cae9f60bf9060200160405180910390a3505050505050565b6001600160a01b0382166000908152600260205260408120905b81548110156119805782805190602001208282815481106118c4576118c461211a565b906000526020600020016040516118db91906121b2565b60405180910390200361196e57815482906118f89060019061223e565b815481106119085761190861211a565b906000526020600020018282815481106119245761192461211a565b90600052602060002001908161193a9190612257565b508180548061194b5761194b612332565b6001900381819060005260206000200160006119679190611986565b9055611980565b8061197881612348565b9150506118a1565b50505050565b50805461199290611fd7565b6000825580601f106119a2575050565b601f0160209004906000526020600020908101906119c091906119c3565b50565b5b808211156119d857600081556001016119c4565b5090565b634e487b7160e01b600052604160045260246000fd5b600082601f830112611a0357600080fd5b813567ffffffffffffffff80821115611a1e57611a1e6119dc565b604051601f8301601f19908116603f01168101908282118183101715611a4657611a466119dc565b81604052838152866020858801011115611a5f57600080fd5b836020870160208301376000602085830101528094505050505092915050565b600060208284031215611a9157600080fd5b813567ffffffffffffffff811115611aa857600080fd5b611ab4848285016119f2565b949350505050565b60008060008060008060008060006101208a8c031215611adb57600080fd5b893567ffffffffffffffff80821115611af357600080fd5b611aff8d838e016119f2565b9a5060208c0135915080821115611b1557600080fd5b611b218d838e016119f2565b995060408c0135915080821115611b3757600080fd5b611b438d838e016119f2565b985060608c0135915080821115611b5957600080fd5b611b658d838e016119f2565b975060808c0135965060a08c0135915080821115611b8257600080fd5b611b8e8d838e016119f2565b955060c08c0135915080821115611ba457600080fd5b611bb08d838e016119f2565b945060e08c0135915080821115611bc657600080fd5b611bd28d838e016119f2565b93506101008c0135915080821115611be957600080fd5b50611bf68c828d016119f2565b9150509295985092959850929598565b600060208284031215611c1857600080fd5b5035919050565b60005b83811015611c3a578181015183820152602001611c22565b50506000910152565b60008151808452611c5b816020860160208601611c1f565b601f01601f19169290920160200192915050565b602081526000611c826020830184611c43565b9392505050565b85151581526001600160a01b038516602082015260a060408201819052600090611cb590830186611c43565b8460608401528281036080840152611ccd8185611c43565b98975050505050505050565b60006020808301818452808551808352604092508286019150828160051b87010184880160005b83811015611d6557888303603f19018552815180516001600160a01b03908116855288820151168885015286810151608088860181905290611d4482870182611c43565b60609384015196909301959095525094870194925090860190600101611d00565b509098975050505050505050565b80356001600160a01b0381168114611d8a57600080fd5b919050565b600080600060608486031215611da457600080fd5b833567ffffffffffffffff80821115611dbc57600080fd5b611dc8878388016119f2565b9450611dd660208701611d73565b93506040860135915080821115611dec57600080fd5b50611df9868287016119f2565b9150509250925092565b600060208284031215611e1557600080fd5b611c8282611d73565b6000602080830181845280855180835260408601915060408160051b870101925083870160005b82811015611e7357603f19888603018452611e61858351611c43565b94509285019290850190600101611e45565b5092979650505050505050565b61018081526000611e9561018083018f611c43565b8281036020840152611ea7818f611c43565b90508281036040840152611ebb818e611c43565b90508281036060840152611ecf818d611c43565b90508a608084015282810360a0840152611ee9818b611c43565b905082810360c0840152611efd818a611c43565b6001600160a01b03891660e08501529050828103610100840152611f218188611c43565b9050828103610120840152611f368187611c43565b91505083610140830152611f4f61016083018415159052565b9d9c50505050505050505050505050565b600080600060608486031215611f7557600080fd5b833567ffffffffffffffff80821115611f8d57600080fd5b611f99878388016119f2565b94506020860135915080821115611faf57600080fd5b611dd6878388016119f2565b60008251611fcd818460208701611c1f565b9190910192915050565b600181811c90821680611feb57607f821691505b602082108103610d8e57634e487b7160e01b600052602260045260246000fd5b601f82111561205557600081815260208120601f850160051c810160208610156120325750805b601f850160051c820191505b818110156120515782815560010161203e565b5050505b505050565b815167ffffffffffffffff811115612074576120746119dc565b612088816120828454611fd7565b8461200b565b602080601f8311600181146120bd57600084156120a55750858301515b600019600386901b1c1916600185901b178555612051565b600085815260208120601f198616915b828110156120ec578886015182559484019460019091019084016120cd565b508582101561210a5787850151600019600388901b60f8161c191681555b5050505050600190811b01905550565b634e487b7160e01b600052603260045260246000fd5b60208082526017908201527f50726f706572747920646f6573206e6f74206578697374000000000000000000604082015260600190565b6020808252602b908201527f4f6e6c792070726f7065727479206f776e65722063616e20706572666f726d2060408201526a3a3434b99030b1ba34b7b760a91b606082015260800190565b60008083546121c081611fd7565b600182811680156121d857600181146121ed5761221c565b60ff198416875282151583028701945061221c565b8760005260208060002060005b858110156122135781548a8201529084019082016121fa565b50505082870194505b50929695505050505050565b634e487b7160e01b600052601160045260246000fd5b8181038181111561225157612251612228565b92915050565b818103612262575050565b61226c8254611fd7565b67ffffffffffffffff811115612284576122846119dc565b612292816120828454611fd7565b6000601f8211600181146122c657600083156122ae5750848201545b600019600385901b1c1916600184901b17845561232b565b600085815260209020601f19841690600086815260209020845b8381101561230057828601548255600195860195909101906020016122e0565b508583101561231e5781850154600019600388901b60f8161c191681555b50505060018360011b0184555b5050505050565b634e487b7160e01b600052603160045260246000fd5b60006001820161235a5761235a612228565b506001019056fea2646970667358221220e640c2f682ef49d8d33e309bfeb873297e6d94a09294bc197f48b40cae0bbb0764736f6c63430008140033",
  "linkReferences": {},
  "deployedLinkReferences": {}
}